:10000000F8FF002011040000293C0000FD3600002C
:10001000293C0000293C0000293C0000293C00004C
:10002000293C0000293C0000293C0000293C00003C
:10003000293C0000293C000007370000FB36000087
:100040000B370000293C0000293C0000293C00003F
:100050000D360000293C0000293C0000293C00002E
:10006000293C0000293C0000293C0000293C0000FC
:10007000293C0000293C0000293C0000293C0000EC
:10008000293C0000293C0000293C0000293C0000DC
:10009000293C0000293C0000293C0000293C0000CC
:1000A000293C0000293C0000293C0000293C0000BC
:1000B000293C0000293C0000293C0000293C0000AC
:1000C000293C0000293C0000293C0000293C00009C
:1000D000293C0000293C0000293C0000293C00008C
:1000E000293C0000293C0000293C0000293C00007C
:1000F000293C0000F9360000293C0000293C0000A2
:10010000293C0000293C0000293C0000293C00005B
:10011000293C0000293C0000293C0000293C00004B
:10012000293C0000293C0000293C0000293C00003B
:10013000293C0000293C000009370000293C000050
:10014000293C0000293C0000293C0000293C00001B
:100150000F360000EB360000293C0000293C00006F
:10016000293C0000293C0000293C0000293C0000FB
:10017000293C0000293C0000293C0000293C0000EB
:10018000293C0000293C0000293C0000293C0000DB
:10019000293C00000D370000293C0000293C0000EC
:1001A000293C00000B36000009360000293C000005
:1001B000293C0000293C0000293C0000293C0000AB
:1001C000293C0000293C0000293C0000293C00009B
:1001D000293C0000293C0000293C0000293C00008B
:1001E000293C0000293C0000293C0000293C00007B
:10040000FFFFFFFFFFFFFFFFFFFFFFFFFEFFFFFFFD
:1004100062B64FF000004FF000014FF000024FF0C5
:1004200000034FF000044FF000054FF000064FF0BE
:1004300000074FF000084FF000094FF0000A4FF09E
:10044000000B4FF0000C01F02BF9FEE7000000005C
:10045000000000000000000000000000000000F8A4
:1004600000000000000000333000000000100C0607
:10047000100C0600000000000000000040C07840A2
:10048000C0784000043F04043F040400007088FC6E
:1004900008300000001820FF211E0000F008F000C6
:1004A000E018000000211C031E211E0000F0088837
:1004B000700000001E2123241927211010160E00A1
:1004C000000000000000000000000000000000E04C
:1004D0001804020000000007182040000002041861
:1004E000E00000000040201807000000404080F0BD
:1004F000804040000202010F01020200000000F0F3
:10050000000000000101011F0101010000000000C6
:100510000000000080B0700000000000000000003B
:1005200000000000000101010101010100000000C4
:10053000000000000030300000000000000000005B
:1005400080601804006018060100000000E0100838
:100550000810E000000F102020100F00001010F80D
:10056000000000000020203F20200000007008084C
:1005700008887000003028242221300000300888CC
:10058000884830000018202020110E000000C020F4
:1005900010F8000000070424243F240000F8088815
:1005A000880808000019212020110E0000E01088A2
:1005B00088180000000F112020110E0000380808D4
:1005C000C83808000000003F0000000000708808E4
:1005D00008887000001C222121221C0000E0100865
:1005E0000810E0000000312222110F00000000C0BE
:1005F000C00000000000003030000000000000805B
:10060000000000000000806000000000000080404A
:100610002010080000010204081020004040404063
:1006200040404000040404040404040000081020B6
:1006300040800000002010080402010000704808FB
:100640000808F0000000003036010000C030C82863
:10065000E810E0000718272423140B000000C0381E
:10066000E0000000203C23020227382008F8888898
:1006700088700000203F202020110E00C0300808A4
:1006800008083800071820202010080008F808087B
:100690000810E000203F202020100F0008F8888874
:1006A000E8081000203F20202320180008F8888840
:1006B000E8081000203F200003000000C0300808B8
:1006C0000838000007182020221E020008F8080041
:1006D0000008F808203F210101213F20000808F808
:1006E000080800000020203F20200000000008082B
:1006F000F8080800C08080807F00000008F888C0EB
:1007000028180800203F20012638200008F808009B
:1007100000000000203F20202020300008F8F800D2
:10072000F8F80800203F003F003F200008F830C0E4
:100730000008F808203F200007183F00E0100808D4
:100740000810E0000F10202020100F0008F8080803
:100750000808F000203F210101010000E010080816
:100760000810E0000F18242438504F0008F888883B
:1007700088887000203F2000030C3020007088081B
:10078000080838000038202121221C00180808F829
:10079000080818000000203F2000000008F80800AA
:1007A0000008F808001F202020201F00087888007B
:1007B00000C83808000007380E010000F80800F8EB
:1007C0000008F800033C0700073C03000818688095
:1007D0008068180820302C03032C30200838C8000B
:1007E000C83808000000203F20000000100808085A
:1007F000C83808002038262120201800000000FEFC
:10080000020202000000007F40404000000C30C0A7
:1008100000000000000000010638C00000020202D3
:10082000FE000000004040407F0000000000040285
:1008300002020400000000000000000000000000B0
:1008400000000000808080808080808000020204A0
:100850000000000000000000000000000000808098
:10086000808000000019242222223F2008F8008006
:1008700080000000003F112020110E0000000080C9
:1008800080800000000E1120202011000000008058
:100890008088F800000E112020103F20000080808A
:1008A00080800000001F222222221300008080F09E
:1008B000888888180020203F2020000000008080C9
:1008C00080808000006B94949493600008F800800E
:1008D00080800000203F210000203F200080989869
:1008E000000000000020203F2020000000000080C9
:1008F0009898000000C08080807F000008F8000009
:1009000080808000203F24022D302000000808F85D
:10091000000000000020203F202000008080808018
:1009200080808000203F20003F20003F80800080AA
:1009300080800000203F210000203F2000008080B8
:1009400080800000001F202020201F008080008069
:100950008000000080FFA12020110E000000008018
:1009600080808000000E112020A0FF808080800009
:100970008080800020203F21200001000000808036
:10098000808080000033242424241900008080E02B
:10099000808000000000001F2020000080800000F8
:1009A00000808000001F202020103F2080808000D9
:1009B0000080808000010E300806010080800080E9
:1009C000008080800F300C030C300F00008080000E
:1009D000808080000020312E0E3120008080800039
:1009E0000080808080818E701806010000808080E9
:1009F000808080000021302C222130000000000087
:100A0000807C020200000000003F40400000000027
:100A1000FF00000000000000FF0000000002027C58
:100A2000800000000040403F00000000000601017F
:100A30000202040400000000000000000821DFF8AA
:100A40008825126852F00402DFF87C351A60DFF85E
:100A50007825126832F00202DFF86C351A6019E06E
:100A6000DFF86425126832F00802DFF85C351A609E
:100A7000DFF85425126852F00202DFF84C351A6094
:100A800000BFDFF84425126832F00202DFF8383583
:100A90001A6040000A00511ED2B2002A0AD0020693
:100AA000DED5DFF82425126852F00802DFF8183589
:100AB0001A60DDE7704700000821DFF80C25126896
:100AC00032F00402DFF800351A60DFF8FC24126807
:100AD00032F00202DFF8F0341A6019E0DFF8E8249F
:100AE000126832F00802DFF8E0341A60DFF8D82428
:100AF000126852F00202DFF8D0341A6000BFDFF84B
:100B0000C824126832F00202DFF8BC341A604000D8
:100B10000A00511ED2B2002A0AD00206DED5DFF842
:100B2000A824126852F00802DFF89C341A60DDE74E
:100B3000704710B50400B1F15000C0B2FFF7BCFF20
:100B4000E4B2200950F01000C0B2FFF7B5FF14F076
:100B50000F0050F00100C0B2FFF7AEFF10BD70B53E
:100B60000400002508E02000C0B2FFF767FF761CF4
:100B7000F6B2802EF7DB6D1CEDB2082D0CDAB5F164
:100B80005000C0B2FFF798FF0120FFF795FF10203B
:100B9000FFF792FF0026EBE770BD07E04FF47A51B4
:100BA0000A00511E92B2002AFAD1401E80B20028DB
:100BB000F4D1704780B5012301220121032000F008
:100BC0000DFA012301220221032000F007FA01237C
:100BD00001220321032000F001FA01230122042154
:100BE000032000F0FBF9002301220F21022000F076
:100BF000F5F9DFF8D403006850F00200DFF8C813FD
:100C00000860DFF8C403006830F01000DFF8B813A4
:100C10000860DFF8B803006830F40040DFF8AC1378
:100C200008603220FFF7B9FFDFF8A003006850F436
:100C30000040DFF898130860AE20FFF73DFF00206A
:100C4000FFF73AFF1020FFF737FF4020FFF734FF90
:100C50008120FFF731FFCF20FFF72EFFA120FFF704
:100C60002BFFC820FFF728FFA620FFF725FFA820AD
:100C7000FFF722FF3F20FFF71FFFD320FFF71CFFE6
:100C80000020FFF719FFD520FFF716FF8020FFF7A0
:100C900013FFD920FFF710FFF120FFF70DFFDA2037
:100CA000FFF70AFF1220FFF707FFDB20FFF704FF23
:100CB0004020FFF701FF2020FFF7FEFE0220FFF794
:100CC000FBFE8D20FFF7F8FE1420FFF7F5FEA420B1
:100CD000FFF7F2FEA620FFF7EFFEAF20FFF7ECFED6
:100CE0000020FFF73CFF00210020FFF722FF00203B
:100CF000FFF735FF40F2DC50FFF74FFF01BD2DE954
:100D0000F84304000D0016005FF000085FF00009D2
:100D1000002714E0DFF8B8025FFA88F85FEA0811EC
:100D200051FA89F10818007AFFF788FE19F10109D4
:100D30005FFA89F9B9F1080FECDB08347F1CFFB2C8
:100D4000B85D00282BD0FFB2B85DB0F12008E4B246
:100D5000792C01DB00246D1C2900C9B22000C0B22F
:100D6000FFF7E7FE5FF000090BE099485FFA88F8AB
:100D70005FEA081151FA89F1085CFFF75FFE19F18B
:100D800001095FFA89F9B9F1080FEEDB691CC9B2F4
:100D90002000C0B2FFF7CDFE5FF00009C8E7BDE854
:100DA000F1832DE9F84306000C0015005FF00009FF
:100DB00000275FF001080BE00020FFF73FFE19F16C
:100DC00001095FFA89F9B9F1100FF5DB0E36BF1C86
:100DD000FFB2785D002800F086805FF000095FF0C8
:100DE000010801E019F102097A485FFA89F919F856
:100DF0000000802818DB77485FFA89F919F80000AD
:100E0000FFB2795D8842EDD172485FFA89F919EB3A
:100E100000004078FFB2791949788842E2D15FFA40
:100E200089F90E2019FB00F8F6B2772E01DB0026B7
:100E3000641C2100C9B23000C0B2FFF77AFE1FFA6D
:100E400088F8B8F1010F31D02100C9B23000C0B22A
:100E5000FFF76FFE5FF000090AE05F481FFA88F8AD
:100E600018F80000FFF7EAFD18F1010819F101096F
:100E70005FFA89F9B9F10E0FEFDB611CC9B23000DE
:100E8000C0B2FFF756FE5FF000095FFA89F9B9F1C9
:100E90000E0F9BDA50481FFA88F818F80000FFF789
:100EA000CDFD18F1010819F10109EEE77F1C2100C1
:100EB000C9B23000C0B2FFF73CFE5FF0000904E0A9
:100EC0000020FFF7BBFD19F101095FFA89F9B9F1BB
:100ED000100FF5DB611CC9B23000C0B2FFF729FE6C
:100EE0005FF000096DE7BDE8F18310B4062300222E
:100EF000DBB25A540DE05B1E80B20A2290FBF2F482
:100F000002FB140280B20A2490FBF4F03032DBB210
:100F10005A54DBB2002BEED110BC70477CB50400F4
:100F20000D001000002600A980B2FFF7DEFF00E0F0
:100F3000761C00A8F6B2305C3028F9D000A8F6B2D2
:100F4000361808E032002900C9B22000C0B2FFF70D
:100F5000D6FE0834761C30780028F3D173BDF8B57E
:100F600004000D001600002714E0FFB2B85D8DF8F4
:100F70000000FFB2B81940788DF8010000208DF80C
:100F8000020000AA2900C9B22000C0B2FFF709FF81
:100F90000E34BF1CFFB2B85D002814D0FFB2B85D9C
:100FA0008028E2DAFFB2B85D8DF8000000208DF8ED
:100FB000010000AA2900C9B22000C0B2FFF79FFEBD
:100FC00008347F1CE6E7F1BDC0F00F4080F00F4011
:100FD0004C0400005C3F0000BC370000F8B5040082
:100FE0000D0017001E00EDB2202D02D2F6B2022E27
:100FF00003D32421274800F053F82748E4B250F8DF
:101000002400EDB2FFB257F4807140F82510F807C4
:1010100005D5FFB2032F02D0FFB2132F0DD11F4809
:10102000E4B250F8240040690121A94088431B49DB
:10103000E4B251F8241048612AE01848E4B250F8AC
:10104000240040690121A94008431449E4B251F841
:1010500024104861F6B2012E0DD11048E4B250F8C8
:10106000240000680121A94008430C49E4B251F86A
:10107000241008600CE00948E4B250F8240000682D
:101080000121A94088430549E4B251F824100860C1
:10109000F1BD0000F03800003804FF1F2404FF1FDA
:1010A00038B504000D0000F00BF82A0021000348B9
:1010B00000F0B7FA00F02EF8F7E700BF1038000094
:1010C00080B5012301220C210320FFF787FF0123B4
:1010D00001220D210320FFF781FF012301220E21B0
:1010E0000320FFF77BFF012301220F210320FFF7DD
:1010F00075FF01BD1E4AD2681268012383409A43DE
:10110000C9B211F0010111FA00F010431849C96881
:101110000860704710B5012301220C210320FFF75E
:101120005DFF012301220D210320FFF757FF01235B
:1011300001220E210320FFF751FF012301220F217D
:101140000320FFF74BFF0C240DE000212000C0B26C
:10115000FFF7D0FF642000F075FA01212000C0B233
:10116000FFF7C8FF641CE4B2102CEEDB10BD0000DA
:101170002404FF1F10B50C001168012902D00229B8
:1011800004D009E0C0B25168884705E09168087052
:101190009068401C9060FFE72068401C206010BDF4
:1011A00030B41C00002300250570401C002A19D013
:1011B000096800290AD1302101705B1C180030BC7D
:1011C0007047303511000570401C5B1C0029F5D0BC
:1011D00091FBF4F204FB1215002DF2D5E94311F155
:1011E0003105EFE70968002908D1302101705B1C47
:1011F000E4E7373511000570401C5B1C0029DDD089
:10120000B1FBF4F204FB12150A2DF2D23035F1E7EE
:10121000F8B504000D0016001F0005E03A0031008B
:101220003020FFF7A7FF641CAC42F7DBF1BDF8B537
:1012300004000D0016001F0005E03A0031002020D8
:10124000FFF798FF641CAC42F7DBF1BD2DE9F04FCE
:101250008DB005009046002000900C0004E02A00AC
:1012600000A9FFF787FF641C2078002800F0D581D3
:10127000252811D00A2804D02A0000A9FFF77AFFF8
:1012800009E02A0000A90D20FFF774FF2A0000A939
:101290000A20FFF76FFFE6E70026002101E056F085
:1012A000010600291BD1641C207820280BD023289C
:1012B0000FD02B2804D02D28F1D0302806D00BE0F9
:1012C00056F00206EDE756F00406EAE756F0080687
:1012D000E7E756F01006E4E7641E0121E1E7002786
:1012E000002104E00A2202FB0700B0F130070029C8
:1012F00008D1641C20780200303A092AF2D9641E11
:101300000121F4E7641C20782E280BD10021FFE78F
:10131000002908D1641C207830380928F8D9641EC7
:101320000121F5E7641E641C20784C2806D068284B
:1013300002D06C2801D002E002E001E000E0641E6F
:10134000641C20780100582977D0622900F0D880E9
:10135000632900F02881642913D0692911D06E29EE
:1013600000F054816F2900F0BE80702900F0D58014
:10137000732900F02281752900F0DC8078295CD087
:101380006DE7D8F8000018F1040803900A23012241
:1013900003A904A8FFF704FF814604A819EB000085
:1013A00002900398002804D55FF02D0A19F1010975
:1013B0000FE0B00704D55FF02B0A19F1010908E02E
:1013C000700704D55FF0200A19F1010901E05FF010
:1013D000000A5FF0000B300711D5BAF1000F04D0FE
:1013E0002A0000A95046FFF7C5FE5FF0010B2B0055
:1013F00000AA39004846FFF70BFFB94611E0F00795
:101400000FD42B0000AA39004846FFF710FFBAF1AD
:10141000000F04D02A0000A95046FFF7ABFE5FF092
:10142000010BBBF1000F07D1BAF1000F04D02A0065
:1014300000A95046FFF79EFEA8E0D8F8000018F17A
:10144000040801901023002201A904A8FFF7A8FEB8
:10145000814604A819EB000002905FF0000B3007F2
:1014600015D5F0060BD52A0000A93020FFF782FE23
:101470002A0000A97820FFF77DFE5FF0010B2B000A
:1014800000AA39004846FFF7C3FEB94619E0F00745
:1014900017D4F00601D519F102092B0000AA390072
:1014A0004846FFF7C4FEF0060BD52A0000A93020FD
:1014B000FFF760FE2A0000A97820FFF75BFE5FF0CF
:1014C000010BF0060ED5BBF1000F0BD12A0000A9CD
:1014D0003020FFF74FFE2A0000A97820FFF74AFED0
:1014E00019F1020952E0D8F8000018F1040801903F
:1014F0000823002201A904A8FFF752FE814625E037
:10150000D8F8000018F1040801900223002201A974
:1015100004A8FFF745FE814618E0D8F8000018F14E
:10152000040801901023002201A904A8FFF738FE47
:1015300081460BE0D8F8000018F1040801900A2356
:10154000002201A904A8FFF72BFE814604A819EB8D
:1015500000000290300707D52B0000AA390048464A
:10156000FFF756FEB94611E0F0070FD42B0000AA92
:1015700039004846FFF75BFE08E02A0000A9029800
:101580000078FFF7F7FD0298401E0290029800785D
:101590000028F2D1F00705D52B0000AA39004846F3
:1015A000FFF745FE5FE6D8F8000018F10408C0B266
:1015B0002A0000A9FFF7DEFD55E6D8F800A018F1D3
:1015C0000408BAF1000F20D0504600F04BF88146D5
:1015D000F0070ED42B0000AA39004846FFF727FE7B
:1015E00007E02A0000A99AF80000FFF7C3FD1AF1EE
:1015F000010A9AF800000028F3D1F00705D52B0066
:1016000000AA39004846FFF712FE2CE6D8F8000081
:1016100018F104080099016025E600980DB0BDE8B6
:10162000F08F0EB400B584B00121009104490191FE
:1016300005AA010000A8FFF709FE04B05DF810FB41
:10164000113F0000002104E000BF521E002AFBD120
:10165000491C814202D2024A1268F7E77047000033
:101660000805FF1F0021002802D1002006E0491CC8
:101670000200501C1278002AF9D10800704750F877
:10168000041B61B150F8042BD30744BFA9F1010337
:101690009A180023091F42F8043BFAD1EFE770477C
:1016A00080B500F07BFA00F095FA00F0E1FADFF87F
:1016B000C403FFF7B6FFDFF8C0030068DFF8BC1310
:1016C0004979491CB0FBF1F00090DFF8AC030068E9
:1016D000DFF8A8130979491CB0FBF1F3DFF8980390
:1016E0000068DFF89813C978491CB0FBF1F2DFF805
:1016F00088030168DFF88803FFF793FFDFF88403AE
:101700000078400703D5DFF88003FFF78AFFDFF892
:1017100074030078800703D5DFF87003FFF781FFBB
:10172000DFF860030078C00703D5DFF86403FFF734
:1017300078FFDFF860030078000603D5DFF8580370
:10174000FFF76FFFDFF84C030078400603D5DFF8A2
:101750004C03FFF766FFDFF83C030078800603D5F3
:10176000DFF83C03FFF75DFFDFF828030078400750
:1017700003D5DFF83003FFF754FFDFF818030078D4
:10178000800703D5DFF82003FFF74BFFDFF80403E2
:101790000078C00703D5DFF81403FFF742FFDFF836
:1017A0001003FFF73EFFDFF80C03DFF80C1388424D
:1017B00004D0DFF80803FFF734FF03E0DFF800038D
:1017C000FFF72FFF00F003F800F080FAFEE780B586
:1017D000DFF8F0020068000910F0070000280BD0C5
:1017E000022811D00CD3042816D011D306281BD000
:1017F00016D307281CD01FE0B348FFF712FF1EE0E6
:10180000B248FFF70EFF1AE0B148FFF70AFF16E0F3
:10181000B048FFF706FF12E0AF48FFF702FF0EE007
:10182000AE48FFF7FEFE0AE0AD48FFF7FAFE06E01D
:10183000AC48FFF7F6FE02E0AB48FFF7F2FEA14826
:10184000006810F00F00022812D0042814D00528D8
:1018500016D0062818D007281AD008281CD0092826
:101860001ED00A2820D00C2822D00E2824D027E011
:101870009E48FFF7D6FE26E09D48FFF7D2FE22E005
:101880009C48FFF7CEFE1EE09B48FFF7CAFE1AE019
:101890009A48FFF7C6FE16E09948FFF7C2FE12E02D
:1018A0009848FFF7BEFE0EE09748FFF7BAFE0AE041
:1018B0009648FFF7B6FE06E09548FFF7B2FE02E055
:1018C0009448FFF7AEFE7F480068000B10F00F0051
:1018D000002803D0022809D004D30BE08E48FFF77C
:1018E000A0FE0AE08D48FFF79CFE06E08C48FFF75B
:1018F00098FE02E08B48FFF794FE00F06AF88A48F1
:101900000068000E10F00F00072806D0092808D044
:101910000B280AD00F280CD00FE08448FFF781FE77
:101920000EE08348FFF77DFE0AE08248FFF779FE6C
:1019300006E08048FFF775FE02E07F48FFF771FE82
:101940007E480068000203D57D48FFF76AFE1EE06E
:1019500075480068000F002806D0072808D009281D
:101960000AD00F280CD00FE07648FFF75AFE0EE0A1
:101970007548FFF756FE0AE07448FFF752FE06E08E
:101980007248FFF74EFE02E07148FFF74AFE7148C9
:101990000068000B10F00F00052806D0072808D0BB
:1019A00008280AD009280CD00FE06B48FFF739FE51
:1019B0000EE06A48FFF735FE0AE06948FFF731FE9E
:1019C00006E06848FFF72DFE02E06748FFF729FEB2
:1019D00001BD80B503206549087000206449087086
:1019E00000206449087000206349087001206349A1
:1019F0000870802062490870614800780006FBD5B5
:101A00006048017860480278604803786048007850
:101A1000C0B20090DBB2D2B2C9B25E48FFF701FE9D
:101A20000320524908700020514908700020514994
:101A30000870042050490870012050490870802027
:101A40004F4908704E4800780006FBD54D48017894
:101A50004D4802784D4803784D480078C0B2009058
:101A6000DBB2D2B2C9B24C48FFF7DBFDFF204449DC
:101A7000087001BD883B00000405FF1F4C04FF1FD8
:101A80008039000000E00740403E0000483C000074
:101A9000203F000001E00740503E0000A03D000054
:101AA000E03C0000F83C0000643C00002C3F0000DB
:101AB000A83B00000000FF1F00000000383F0000AE
:101AC000443F000024800440643F00006C3F00005D
:101AD000743F00007C3F0000843F00008C3F00000A
:101AE000943F00009C3F0000E03A0000603E000090
:101AF000703E0000803E0000903E0000A03E0000CE
:101B0000B03E0000C03E0000D03E0000E03E0000BD
:101B1000F03E0000B43A0000B43D0000C83D0000B3
:101B2000DC3D00000C3A00004C800440103D0000F9
:101B3000283D0000403D0000C83B000050800440AC
:101B4000003F0000583D0000703D0000883D00004F
:101B5000E83B000000700440F03D0000043E00003F
:101B6000183E00002C3E0000803C000007000240B0
:101B70000600024005000240040002400F0002403F
:101B8000000002400B0002400A000240090002402F
:101B900008000240083B0000083C000080B500F04F
:101BA00009F80A4800884FF6FE7108400749088086
:101BB00001BD000072B64CF22050054908804DF678
:101BC00028100349088062B67047000000200540D5
:101BD0000E20054080B51C481C4988420BD00020CF
:101BE00006E01A4951F82010174A42F82010401C0C
:101BF000B0F5826FF5D3144800F0A2F91449154AE4
:101C00001548801A03E013780B70521C491C03001E
:101C1000581E002BF7D111491148401A02E000224A
:101C20000A70491C0200501E002AF8D10D490E4AC4
:101C30000E48801A03E013780B70521C491C0300F5
:101C4000581E002BF7D101BD0000FF1F000000004F
:101C50001004FF1F60370000BC370000B804FF1FEE
:101C60001805FF1F6C04FF1F5C380000A838000037
:101C700080B51148006850F478500F490860C820BA
:101C800000F0BEF90D4908600C4800684FF47A7105
:101C900048430B4908600A4800680A490968C1F3CB
:101CA0000361491CB0FBF1F0074908604FF416517D
:101CB000022000F01BFB01BD388004400405FF1F1B
:101CC0000005FF1F448004400805FF1F80B5002069
:101CD000C8208B49086072B600F008FC00F0CEFD09
:101CE00000F0DCFDFEF766FF8648006800F0F0FDBE
:101CF0000022854B00F0FAFD00F0E0FE010000201C
:101D000000F0F2FE7F480068642101FB00F1012031
:101D100000F0EAFE0123012211210020FFF75EF905
:101D2000002300220F210320FFF758F9002300228F
:101D30000E210320FFF752F9002300220021042086
:101D4000FFF74CF90023002201210420FFF746F998
:101D5000002302224FF6FF71022000F0F9FE62B666
:101D600049E0DC220121002001F0CCF800F0D0FB9A
:101D7000664908606548006800F6EC1064494968E7
:101D8000886164480078012835D1002061490870D5
:101D90000020FEF7E4FE56A200210020FFF7DFF846
:101DA0005D48026892B200210F20FFF7B7F851A2F8
:101DB00002210020FFF7D3F85848026892B20221AE
:101DC0000F20FFF7ABF84CA204210020FFF7C7F863
:101DD0005348026892B204210F20FFF79FF847A2F0
:101DE00006210020FFF7BBF84E48026892B2062198
:101DF0000F20FFF793F84C4800780128C1D100204C
:101E000049490870494800684949088049480068BC
:101E100040084000474908604648006850F001000B
:101E200044490860444800784FF6FF71404A1288E0
:101E300001FB00203E4908802323022203210A20BF
:101E400001F0BAF8642190FBF1F03C490860324897
:101E50000068324909680818314909680818314989
:101E600009680818B0F52F7FBFF67BAF2A480068D5
:101E70002C490968401A9530B0F5957F14D826484A
:101E8000006828490968081815280DDB24480068EF
:101E90000B2809DB234800680B2805DB0022012101
:101EA000002001F02FF861E71B4800681D49096810
:101EB000401A9530B0F5957F14D817480068194935
:101EC0000968081815280DDB154800680B2809DB80
:101ED000144800680B2805DB00220121002001F0D6
:101EE00011F843E769220121002001F00BF83DE7DA
:101EF000313A0000323A0000333A0000343A000030
:101F0000CC04FF1F0805FF1F0000E03FD004FF1FA7
:101F10001804FF1F1705FF1FE804FF1FEC04FF1F35
:101F2000F004FF1FF404FF1F1305FF1F0C00044003
:101F30000E05FF1F00000440C804FF1FD404FF1F4C
:101F400025490860704710B504005C2C02DB23486B
:101F5000FFF767FB202094FBF0F0002803D0022855
:101F600027D013D337E00120202194FBF1F202FBAC
:101F7000114290401A4908600120202194FBF1F29F
:101F800002FB114290401749086024E00120202103
:101F900094FBF1F202FB11429040134908600120CA
:101FA000202194FBF1F202FB114290400F4908609E
:101FB00011E00120202194FBF1F202FB114290403C
:101FC0000B4908600120202194FBF1F202FB114231
:101FD00090400849086010BD08ED00E04C3A000050
:101FE00080E200E000E100E084E200E004E100E0E3
:101FF00088E200E008E100E0DFF800F06D04FF1F78
:1020000010B5C0B2002800F00581C0B2010030292F
:102010001ED032292CD0602931D0642936D06E29C7
:102020003BD0782940D07D2945D082294AD08C29BF
:102030004FD0962954D0A02959D0AA295ED0B429CE
:1020400063D0C82968D0E1296DD0FA2972D078E030
:1020500018219E4A117000219C4A517000219B4A10
:102060009170C0B2332870DA0021984AD17084E0B0
:102070001821964A11700121944A5170EEE71821F7
:10208000924A11701821914A5170E7E718218F4A3E
:1020900011701A218D4A5170E0E718218B4A117096
:1020A0001F218A4A5170D9E71321884A11701821DB
:1020B000864A5170D2E71321844A11701A21834A4B
:1020C0005170CBE71321814A11701C217F4A517056
:1020D000C4E70E217D4A117012217C4A5170BDE780
:1020E0000E217A4A11701521784A5170B6E70E21F7
:1020F000764A11701821754A5170AFE70E21734A64
:1021000011701B21714A5170A8E70E216F4A11709E
:102110001E216E4A5170A1E70C216C4A11701C21DE
:102120006A4A51709AE70B21684A11701E21674A6A
:10213000517093E70A21654A11701F21634A51705B
:102140008CE76420FFF75CFFBFE0C0B2652803DACC
:1021500001215E4AD17010E0C0B2972803DA022153
:102160005A4AD17009E0C0B2C92803DA0321574A9C
:10217000D17002E00F21554AD1705449C978534AB1
:102180001171C0B21A2803DA00205049487141E0A9
:10219000C0B2332803DA01204C4948713AE0C0B29A
:1021A0004C2803DA02204949487133E0C0B265285F
:1021B00003DA0320454948712CE0C0B27E2803DAD7
:1021C00004204249487125E0C0B2972803DA05206F
:1021D0003E4948711EE0C0B2B02803DA06203B49F0
:1021E000487117E0C0B2C92803DA0720374948719F
:1021F00010E0C0B2E22803DA08203449487109E04F
:10220000C0B2FB2803DA09203049487102E00F20F0
:102210002E4948712D484078183080B23221484309
:102220002A490978491C89B290FBF1F40020284919
:1022300008702848006850F08050264908602648F9
:10224000007850F0800024490870982023490870D5
:1022500023480078C006FBD421480078C0F38100F1
:10226000C0B20228F8D11948007810F01F001D49AB
:10227000087000201C4908701448437913480279FB
:102280001248C17811488078FFF7B6FE0F484078B1
:1022900010F01F0050F040001349087010480078FB
:1022A0008006FBD50E4800784006FBD50B48007829
:1022B00010F03F000949087009480078C0F3810018
:1022C000C0B20328F8D12000C0B210BD4C04FF1FDB
:1022D000014006403480044008C0074000400640EA
:1022E00006400640044006400540064030B4C0B2F7
:1022F000002808D0022824D014D304283FD02FD39C
:1023000005284BD059E04FF44072674B1A604FF4E8
:102310004072664B1A60664A126852F48062644BDF
:102320001A604AE04FF44072624B1A604FF44072F8
:10233000614B1A605E4A126852F400625C4B1A608C
:102340003BE04FF440725D4B1A604FF440725C4BBF
:102350001A60574A126852F48052554B1A602CE0AA
:102360004FF44072574B1A604FF44072564B1A604C
:102370004F4A126852F400524D4B1A601DE04FF460
:102380004072524B1A604FF44072514B1A60514ADE
:10239000126852F480624F4B1A600EE04FF44072A4
:1023A0004D4B1A604FF440724C4B1A60494A126808
:1023B00052F40062474B1A60FFE7494AC0B252F834
:1023C0002020D27812F0F302454BC0B253F82030EF
:1023D000DA700022424BC0B253F820309A70C0B27B
:1023E000002801D1012200E00022C0B2012801D161
:1023F000012300E00023D2B2DBB21A43002A05D049
:10240000384A12684FF47A735A4304E0364A126825
:102410004FF47A735A430B01B2FBF3F3304CC0B262
:1024200054F82040247814F0E004C3F304252C432E
:102430002B4DC0B255F820502C70294CC0B254F826
:102440002040637052010901B2FBF1F19BB2B1EB84
:102450004311234AC0B252F82020927A12F0E004CD
:1024600011F01F0121431E4AC0B252F82020917280
:102470001B49C0B251F82010C97851F00C01184A1C
:10248000C0B252F82000C17030BC7047144AC0B2CC
:1024900052F8202012791206F8D5114AC0B252F82B
:1024A0002000C1717047000040A0044044A00440D7
:1024B0003480044004D0044000D004400CC00440E8
:1024C00008C0044040B0044044B0044064D004401C
:1024D00060D004402880044024D0044020D0044030
:1024E0005404FF1F0005FF1F0805FF1F80B50921C9
:1024F000002000F09BFD0821002000F097FD0C213A
:10250000002000F093FD0D21002000F08FFD01BDA3
:1025100038B5DFF844030068DFF840130860032093
:1025200002250024052302220821002000F0CCFE11
:10253000DFF82C130860052302220D21002000F093
:10254000C3FEDFF8201308600523022209210020C2
:1025500000F0BAFEDFF810130860052302220C21F8
:10256000002000F0B1FEDFF804130860DFF8F41279
:102570000968DFF8EC221268914211DADFF8E812FC
:102580000968DFF8DC221268914209DADFF8DC1210
:102590000968B34A1268914202DAB14800683DE026
:1025A000AF490968AF4A126891420EDAAE4909682C
:1025B000AC4A1268914208DAAC490968A94A126823
:1025C000914202DAA748006828E0A5490968A64AAE
:1025D000126891420EDAA3490968A34A126891422F
:1025E00008DAA2490968A04A1268914202DA9E48B4
:1025F000006813E09A4909689C4A126891420DDA12
:1026000098490968994A1268914207DA9649096817
:10261000964A1268914201DA944800689049096824
:10262000904A12685118904A126851188F4A1268DD
:102630005118B1F5487F80F28B8089490968894A31
:1026400012685118884A12685118884A126851183D
:10265000C92976DB82490968884207D184487E49C6
:1026600008607D4800687D4908606EE07D49096822
:1026700088422BD17A48006810F59670404276491E
:1026800008607748006879490968401A9530B0F5C4
:10269000957F16D87248006874490968081815288B
:1026A0000FDB714800680B280BDB704800680B28B3
:1026B00007DB4FF4B97068490860674800686749EC
:1026C000086065480068654908603EE06649096839
:1026D000884229D16548006864305F4908606048D5
:1026E000006862490968401A9530B0F5957F16D8A0
:1026F0005B4800685D490968081815280FDB5A48CF
:1027000000680B280BDB594800680B2807DB4FF4E7
:10271000AF705149086050480068504908604E4801
:1027200000684E49086010E05049096888420CD1A1
:1027300040F2EE2048490860474800684749086071
:1027400003E04648006844490860434804687CE068
:102750004349096888421AD14348006843490968D7
:10276000081890FBF5F03E4909683E4A1268511876
:1027700091FBF5F1401A00F0A1F85FF066323D4B95
:1027800000F0B4F800F084F93349086056E03549A8
:102790000968884218D13348006865284EDB304804
:1027A00000686438404200F089F85FF06632324BCE
:1027B00000F006FE5FF066322E4B00F097F800F056
:1027C00067F92549086039E027490968884217D127
:1027D00025480068652831DB24480068643800F02B
:1027E0006DF85FF06632244B00F0EAFD5FF0663270
:1027F000204B00F07BF800F04BF9174908601DE012
:102800001A490968884219D11748006817490968A8
:10281000081890FBF5F012490968124A126851181D
:1028200091FBF5F1401A00F049F85FF06632114B68
:1028300000F05CF800F02CF90749086006480068D1
:10284000001B032190FBF1F00419034800680349C1
:102850000860200032BD0000F804FF1FFC04FF1FC9
:10286000E804FF1FEC04FF1FF004FF1FF404FF1F28
:1028700012FDFFFF6666FE3F6666F63F80B50023E9
:10288000054A0121002000F0C1F90023024A02217B
:10289000002000F0BBF901BD8038010080B51E2387
:1028A0005A220121012000F0B1F940F6EC10024952
:1028B0004968886101BD00BF1804FF1F010040F195
:1028C0000980F446404200F005F851F000416047AD
:1028D000010000BF09D0B0FA80F18840C91CC1F5E1
:1028E0008461090501EBD02140057047B0B581EA4C
:1028F000030C0CF0004C40F2FF7515EA11541DBF9B
:1029000015EA1357AC42AF4239E0E41923EA4553C4
:1029100043F48013C90241F0004141EA505EC7020E
:102920001100A7FB020200284FF00000EEFB01207F
:102930004FF00001E3FB072118BF42F001024018ED
:1029400000214941E3FB0E01A4F580640F0302D28C
:1029500052004041494154F101046CDD470872F1D5
:10296000004250F1000051EB0451A1F580115CBF11
:1029700041EA0C01B0BD4CEA05510020B0BD05EAAA
:102980001357AC4214BFAF4241E050EA410E1CBFA6
:1029900052EA430E02E061460020B0BD24423C44AE
:1029A0001BD15FEA070EF6D0090302BF01460020E3
:1029B000AEF1140EB1FA81F7AEEB070401FA07FE8F
:1029C0000C37C7F1200100FA07F7C8404EEA000EA5
:1029D00023EA455343F48013A2E733F00043B3FAEC
:1029E00083F704BFB2FA82FE77440B3FE41BB7F1D2
:1029F000200E2FBF02FA0EF3BB40C7F1200E22FAC1
:102A00000EFE38BF43EA0E03BA40641C82E750EA68
:102A1000410E14BF52EA430E6FF000014FF400174D
:102A200017EB430F8ABF194617EB410FB5E74CEA86
:102A300005510020B0BDD4F10104B4F120070FDA34
:102A4000C4F12007520828BF42F0010210FA07F52E
:102A500001FA07F7E1BF2A43E0403843E1400FE0C5
:102A6000352C98DCC7F1200452EA400220FA07F224
:102A700018BF42F0010231FA07F0A1400A430021D9
:102A800072F1004250F1000051EB0C01B0BD0000AA
:102A9000F446400D40EAC120490006D200F014F887
:102AA000004248BF6FF00040604700F00DF84FF063
:102AB000004188428CBF084640426047400D40EAD2
:102AC000C120490080F00D8040F00040490DA1F583
:102AD0008061491C05D4D1F11F0154BFC840C01703
:102AE00070474FF00000704780B5164A126852F4E4
:102AF0000002144B1A60144A126892089200124B9A
:102B00001A60124AC0B2030199501049C0B211EBC9
:102B10000011C96851F001010C4AC0B212EB001259
:102B2000D1600A49C0B211EB0011896851F003016C
:102B3000064AC0B212EB00129160C0B24430FFF7F7
:102B400002FA01BD3C800440007003400071034064
:102B5000F8B504000D0017001E00FFB2102F00DBB7
:102B60000F27E4B2012C0AD12148006850F400700C
:102B70001F4908604FF4C0601E49086011E0E4B2CC
:102B8000022C0AD11A48006850F400601849086005
:102B90004FF480601849086003E02D211748FEF7C4
:102BA0007FFA1348006850F00100114908600020C6
:102BB00013490860ADB213480560FFB2F80010F089
:102BC000780050F0050010490860F6B2012E01D1DE
:102BD000082000E00020E4B2210111F03001084398
:102BE00050F04300064908605520FFF7ACF9F1BDED
:102BF000388004404C90044014B004403839000040
:102C00000000044008000440040004402DE9F041A5
:102C100004000D0016001F00DFF8540300684FF495
:102C20007A7148435FEA5008E4B2002C0DD0E4B258
:102C3000012C02D0E4B2022C02D1EDB2022D04DB51
:102C40003821DFF83003FEF72BFA5FEA5800B04274
:102C500004D23921DFF81C03FEF722FA5FEA18409C
:102C6000B0FBF6F1002000E0401C89B20A000241EE
:102C7000012AF9DAB6F57A7F00D2401C4146C140FC
:102C8000B1FBF6F189B24A1C02FB07F24FF47A73EA
:102C9000B2FBF3F2E4B2002C05D0022C00F0B680B7
:102CA000C0F08980DDE0DFF8D0321B6853F080731C
:102CB000DFF8C4623360EDB2002D0BD0022D25D0B9
:102CC00016D3042D3ED02FD3062D57D048D3072D31
:102CD00062D06FE0DFF8A4321B6853F40063DFF8C2
:102CE0009C6233604FF48063DFF894623360B8E035
:102CF000DFF888321B6853F40063DFF880623360CA
:102D00004FF48063DFF87C623360F0E7DFF86C3209
:102D10001B6853F40063DFF8646233604FF4806330
:102D2000DFF864623360E2E7DFF850321B6853F487
:102D30000063DFF8486233604FF48063DFF84C6271
:102D40003360D4E7DFF834321B6853F48053DFF884
:102D50002C6233604FF48063DFF834623360C6E77F
:102D6000DFF818321B6853F48053DFF810623360C9
:102D70004FF48063DFF81C623360B8E7DFF8FC31A2
:102D80001B6853F48053DFF8F46133604FF48063C1
:102D9000DFF804623360AAE7DFF8E0311B6853F420
:102DA0008053DFF8D86133604FF48063DFF8EC6163
:102DB00033609CE7A4E0DFF8C0311B6853F0007378
:102DC000DFF8B4613360EDB2002D02D0012D0ED0DA
:102DD0001BE0DFF8A8311B6853F40073DFF89C6137
:102DE00033604FF44073DFF8B861336039E0DFF8E7
:102DF0008C311B6853F40073DFF8806133604FF44B
:102E00004073DFF8A0613360F0E779E0DFF89831D4
:102E10001B6853F08073DFF890613360EDB2002DD2
:102E200002D0012D0ED01BE0DFF850311B6853F4A7
:102E30000073DFF8486133604FF44073DFF86C6172
:102E400033600EE0DFF834311B6853F40073DFF8B1
:102E50002C6133604FF44073DFF854613360F0E766
:102E60004EE0DFF85031E4B253F82430EDB213EB0A
:102E7000C503DFF84061E4B256F82460EDB216EB0A
:102E8000C506F66836F00406DE60DFF82831E4B2E5
:102E900053F82430EDB213EBC5032826DE60C0B230
:102EA00010F0070050F02800DFF80831E4B253F8C2
:102EB000243018600020DFF8FC30E4B253F82430EE
:102EC000D86489B2DFF8EC00E4B250F824008160E5
:102ED0000020DFF8E010E4B251F82410C864DFF8F5
:102EE000D400E4B250F82400EDB210EBC50092B269
:102EF00002610020DFF8BC10E4B251F824104860F1
:102F0000BDE8F08170B504000D001600E4B2002C9D
:102F10000ED0E4B2012C02D0E4B2022C02D1EDB208
:102F2000022D05DB40F26711DFF84800FEF7B8F824
:102F3000B6F57A7F05D94FF4B471DFF83800FEF7A3
:102F4000AFF8DFF87000E4B250F824008068401C4D
:102F500000FB06F04FF47A71B0FBF1F0DFF854108B
:102F6000E4B251F82410EDB211EBC501086170BD57
:102F70000805FF1FC83900003C8004403880044029
:102F800004B0044008B004400CB0044010B0044049
:102F900010C0044014C0044018C004401CC00440C9
:102FA0002090044024900440308004402890044045
:102FB0002C9004401804FF1F30B4174C2468174DA0
:102FC0002C60174C2468144D2C60164C24881B1B55
:102FD000134C2360144B1B68C0B2114C246804FBD3
:102FE0000030C9B20C4B1B6803FB1100D2B20B4975
:102FF000096801FB02000C4908600B48006846F6AE
:103000006151884203DB46F6605007490860064874
:10301000006830BC704700BFE004FF1FDC04FF1FE6
:10302000E404FF1F0E05FF1FD804FF1F38B505007D
:103030000C00EDB2002D04D1E4B2B4F108000B286D
:103040000BD3EDB2012D03D1E4B2201F0E2804D31F
:103050002321DFF82403FEF723F8EDB2002D03D07F
:10306000012D00F08180F4E0DFF81003006850F0DB
:103070000060DFF808130860DFF80403006830F030
:103080009000DFF8FC1208600020DFF8F4120860FE
:10309000E4B22000083801280CD9801E01281BD971
:1030A000801E01282AD9801E012839D9C01E012876
:1030B00048D958E0DFF8CC02006850F48060DFF8AF
:1030C000C41208600020E4B2A10001F1804111F5B2
:1030D000942141F8200CBCE0DFF8A802006850F40D
:1030E0000070DFF8A01208600020E4B2A10001F136
:1030F000804111F5922141F80C0CECE7DFF88402D5
:10310000006850F48060DFF87C1208600020E4B2B0
:10311000A10001F1804111F5942141F8280CDAE772
:10312000DFF86002006850F40060DFF858120860B1
:103130000020E4B2A10001F1804111F5962141F88F
:10314000380CC8E7DFF83C02006850F40050DFF8A4
:10315000341208600020E4B2A10001F1804111F5B1
:103160009A21C861B7E774E0DFF81C02006850F0EC
:103170000060DFF814120860DFF80402006830F421
:103180001040DFF8FC1108600020DFF8F41108603F
:10319000E4B22000001F03280BD9001F01281AD910
:1031A000801E032828D9001F012835D9C01E43D00E
:1031B0004EE0DFF8D001006850F40050DFF8C41191
:1031C00008600020E4B2A10001F1804111F59A21CC
:1031D00041F8100C3CE0DFF8AC01006850F480606E
:1031E000684908600020E4B2A10001F1804111F5B6
:1031F000942141F8200C2BE06248006850F4806074
:10320000604908600020E4B2A10001F1804111F59D
:10321000942141F8180C1BE05A48006850F4806073
:10322000584908600020E4B2A10001F1804111F585
:10323000942141F8180C0BE05248006850F40070DB
:103240005049086000205149E4B241F82400FFE7EA
:10325000FFE731BD70B504000D0016000020E4B298
:10326000002C04D1EDB2B5F108000B280AD3E4B26A
:10327000012C03D1EDB2281F0E2803D390213E4824
:10328000FDF70EFF3200D2B22900C9B22000C0B251
:1032900000F050F83E48E4B250F824000068000600
:1032A000F8D53B48E4B250F8240000693849E4B24C
:1032B00051F82410096831F08001354AE4B252F81F
:1032C0002420116080B270BD2DE9F84304000D0088
:1032D00016001F005FF00008E4B2002C04D1EDB22C
:1032E000B5F108000B280AD3E4B2012C03D1EDB2EA
:1032F000281F0E2803D3C7211F48FDF7D1FE5FF01A
:1033000000090BE03200D2B22900C9B22000C0B2DD
:10331000FFF7A0FF18FA80F819F101095FFA89F99F
:10332000FFB2B945EED3FFB2B8FBF7F8404680B222
:10333000BDE8F28380B511F01F0151F04001154B3B
:103340001972910011F00C0151F05001114A1170E5
:103350000421104A517041F234210E4A518045F245
:1033600078610C4A91800B49094AC0B252F820009A
:1033700000F012F801BD0000A83800003C800440B5
:10338000188004403880044030800440009004409D
:103390001004FF1FB804FF1F0A7882604A78C260D9
:1033A0004A8882618A88C2618A790262CA794262E5
:1033B000CA6802650A7A0260497A41607047000073
:1033C000F0B540F2FF7581EA030C0CF0004C15EAF1
:1033D00011541DBF15EA1357AC42AF42E5E0BC41A2
:1033E000C1F31301C3F31303801A994143F480130B
:1033F00004D2641E4000494180185941C90241EA83
:103400005051B1FBF3F603FB1611A2FB0675D7EB87
:10341000C020A94102D2761E80185941C90241EA52
:103420005051B1FBF3FE03FB1E11A2FB0E75D7EB4F
:10343000C020A94103D2AEF1010E80185941890282
:1034400041EA9051760546EA8E2EB1FBF3F603FB76
:103450001611A2FB0675D7EB8020A94102D2761E79
:1034600080185941C90241EA50514EEA060EB1FB9B
:10347000F3F603FB1611A2FB0675D7EBC020A9419A
:1034800002D2761E80185941C90241EA5051B1FB5F
:10349000F3F703FB1711A2FB0735D3EBC020A941BB
:1034A00067F100070CBF004247F0010766F3D5271C
:1034B0004FEA1E31B80814F5806412DDBD0775F1BE
:1034C000004250EB0E5051EB045111F5801F5CBFD0
:1034D00041EA0C01F0BD4CF07F6141F0E041002079
:1034E000F0BDBD076D0840EA0E5041F48011D4F1E3
:1034F0000104B4F120060ADAC4F120060200E0401B
:1035000001FA06F3E1401843B24015430EE0342CB3
:1035100013DCC6F1200445EA40056D0820FA06F2E6
:10352000154321FA06F0A1400D43002175F1004238
:1035300050F1000051EB0C01F0BD00205FEA0C01DE
:10354000F0BDCFB992185B41B3FA83F704BFB2FA6A
:1035500082F6BF190B3FB7F120062FBF02FA06F320
:10356000BB40C7F1200622FA06F638BF3343BA4003
:103570001CB1E419641E33E77F4231F00041B1FA17
:1035800081F404BFB0FA80F6A4190B3CB4F1200614
:103590002FBF00FA06F1A140C4F1200620FA06F67A
:1035A00038BF3143A0403C1B1AE7AC421ABF05EAC2
:1035B0001357AF4212E050EA41061CBF52EA4306DD
:1035C000BFE750EA4107304661461CBF41EA05515A
:1035D000F0BD52EA430C08BFC143F0BD00204FF4D8
:1035E000001616EB410F98BF16EB430F08BF16EB02
:1035F000410F24BFC14305E016EB430F0CBF6146EA
:103600004CEA0551F0BD000070477047704780B527
:103610004548006850F0010043490860434800886D
:10362000022190FBF1F202FB1102002A02D10120DB
:103630003F4908703D480088052190FBF1F201FBED
:103640001200002802D101203A490870374800884A
:103650000A2190FBF1F201FB1200002802D10120A7
:103660003549087031480088142190FBF1F201FBC4
:103670001200002804D1012030490870FEF748FFED
:103680002A480088502190FBF1F201FB120000282B
:1036900002D101202A49087024480088642190FB47
:1036A000F1F201FB1200002802D101202549087027
:1036B0001E480088C82190FBF1F201FB120000288F
:1036C00002D1012020490870184800884FF4FA718F
:1036D00090FBF1F201FB1200002805D101201B49EB
:1036E000087000201149088001BD1948006850F099
:1036F00001001749086070477047704780B515484A
:10370000FDF78FFFFBE7704770477047124800686E
:1037100050F080001049086010480068401C0F49B4
:1037200008607047000000000C7103400C05FF1F8B
:103730001005FF1F1105FF1F1205FF1F1305FF1FB7
:103740001405FF1F1505FF1F1605FF1F1705FF1F97
:103750001C710340683B000000000440C804FF1FC8
:1037600000B0034000B00B400080034000900340D5
:1037700000800B4000F00F4040F00F4080F00F4001
:10378000C0F00F4000F10F400090044000A0044042
:1037900000B0044000C0044000D004400B1F0000F3
:1037A0000009000000A0064000B0064000C006402E
:1037B00000D0064000A00E4000B00E4000000404FF
:1037C0007C8C142484740C00000000004020201124
:1037D0000E0E113020404000000008C8380C0AE8E6
:1037E000080888080000000808090909097F090974
:1037F000080808000000FC44B40C0000FEC00000F3
:10380000000000003F08582F100E01030C3000008C
:10381000B6CFD1D4B7A2C9FAD4DA2573CEC4BCFED0
:10382000B5C4B5DA2564D0D0A3A10AB6CFD1D4CC23
:10383000F5BCFEB2BBB3C9C1A2A3ACC7EBBCECB232
:10384000E2B4EDCEF3D4ADD2F2A1A309A1AAA1AA0C
:1038500020627920D2B0BBF00A0A000070B4104C8C
:1038600024680F4D2D6855F47F050D4E356009060F
:1038700011F0706151EA0070110511F470010843F4
:10388000190411F47021084306490860002000E083
:10389000401CC0B29842FBD30148046070BC704722
:1038A00000F0014044800440433A5C5573657273F4
:1038B0005CCEC0B3DB5C4465736B746F705C313796
:1038C000C4EAB5E7B4C5D7E95CB5E7B9ECD7E9B365
:1038D000CCD0F2BFF2BCDC5C7372635C647269765C
:1038E0006572735C6164635C6164632E63000000F5
:1038F000433A5C55736572735CCEC0B3DB5C446560
:10390000736B746F705C3137C4EAB5E7B4C5D7E93F
:103910005CB5E7B9ECB3CCD0F2BFF2BCDC5C73723F
:10392000635C647269766572735C6770696F5C670B
:1039300070696F2E63000000433A5C5573657273C3
:103940005CCEC0B3DB5C4465736B746F705C313705
:10395000C4EAB5E7B4C5D7E95CB5E7B9ECB3CCD0F8
:10396000F2BFF2BCDC5C7372635C64726976657290
:10397000735C6C70746D725C6C70746D722E63002D
:10398000C4DABACBC6B5C2CAA3BA25644D487A090F
:10399000D7DCCFDFC6B5C2CA20A3BA25644D487AAA
:1039A0000A666C6578C6B5C2CAA3BA25644D487A62
:1039B0002009666C617368C6B5C2CAA3BA25644D96
:1039C000487A0A0A00000000433A5C557365727336
:1039D0005CCEC0B3DB5C4465736B746F705C313775
:1039E000C4EAB5E7B4C5D7E95CB5E7B9ECB3CCD068
:1039F000F2BFF2BCDC5C7372635C64726976657200
:103A0000735C46544D5C46544D2E63000A546869FD
:103A1000732076657273696F6E206F6620736F66B0
:103A2000747761726520646F65736E2774207265A8
:103A3000636F676E697A6520746865207265766960
:103A400073696F6E20636F64652E00000A455252E1
:103A50002120496E76616C6964204952512076615B
:103A60006C75652070617373656420746F20656E7A
:103A700061626C65206972712066756E6374696F2E
:103A80006E210A000A2A2A2A2A64656661756C7406
:103A90005F69737220656E7465726564206F6E2055
:103AA000766563746F722025642A2A2A2A2A0D0AF1
:103AB0000A0000000A556E7265636F676E697A6569
:103AC00064204B696E65746973207061636B616714
:103AD0006520636F64652E202020202020000000D8
:103AE0000A556E7265636F676E697A6564204B690B
:103AF0006E657469732066616D696C7920646576A2
:103B00006963652E0A000000466C6173682070616D
:103B100072616D657465722076657273696F6E206F
:103B200025642E25642E25642E25640A00000000DD
:103B300010B5074979441831064C7C44163404E02A
:103B40000A68081D511888470146A142F8D110BDE6
:103B5000080000001400000027DBFFFF60000000E9
:103B6000B804FF1F000000000A2A2A2A2AD3B2BC88
:103B7000FEC9CFB7C3B4EDCEF32121212A2A2A2AC8
:103B80002A0D0A0A000000000A0A0909D2B0BBF097
:103B90006B696E65746973BACBD0C4B0E5B2E2CA22
:103BA000D4B3CCD0F20A00000AD2B0BBF04B696E9D
:103BB00065746973BFAAB7A2B0E5C6F4B6AFB7BD66
:103BC000CABDA3BA00000000455252212120556E03
:103BD000646566696E656420502D666C617368204B
:103BE00073697A650A000000455252212120556E02
:103BF000646566696E656420466C65784E564D2036
:103C000073697A650A000000466C61736820766506
:103C10007273696F6E2049442025642E25642E2519
:103C2000642E25640A00000080B5FDF749FAFDF70F
:103C300071FA03480178C9B20248FDF7F2FC01BDF0
:103C400004ED00E0843A0000436F7265204C6F631E
:103C50006B7570204576656E742052657365740AC5
:103C6000000000004C6F772D766F6C7461676520E3
:103C70004465746563742052657365740A000000BE
:103C8000455252212120556E646566696E65642037
:103C900052414D2073697A650A0A000000F00BF862
:103CA000002801D0FFF744FF0020C046C046FEF7C1
:103CB0000DF800F002F80120704700F001B8000094
:103CC0000746384600F002F8FBE7000080B5C04622
:103CD000C046024A11001820ABBEFBE726000200D6
:103CE0005761746368646F6728434F502920526599
:103CF0007365740A000000004C6F7373206F6620B8
:103D0000436C6F636B2052657365740A000000009A
:103D1000313238206B4279746573206F6620502DE4
:103D2000666C617368090000323536206B42797425
:103D30006573206F6620502D666C61736809000002
:103D4000353132206B4279746573206F6620502DB7
:103D5000666C61736809000030206B42797465738A
:103D6000206F6620466C65784E564D0A00000000B4
:103D7000313238206B4279746573206F6620466C4F
:103D800065784E564D0A0000323536206B42797404
:103D90006573206F6620466C65784E564D0A0000AC
:103DA00045787465726E616C2050696E205265733F
:103DB00065740A0053696C69636F6E2072657620C2
:103DC000312E302020200A0053696C69636F6E2009
:103DD00072657620312E3120200A000053696C690B
:103DE000636F6E2072657620312E3220200A00002B
:103DF0003332206B4279746573206F662052414DD7
:103E00000A0A00003634206B4279746573206F66AD
:103E10002052414D0A0A00003936206B4279746500
:103E200073206F662052414D0A0A0000313238205B
:103E30006B4279746573206F662052414D0A0A0007
:103E4000536F6674776172652052657365740A00FA
:103E5000506F7765722D6F6E2052657365740A001E
:103E6000333270696E2020202020202000000000C6
:103E7000343870696E2020202020202000000000AF
:103E8000363470696E2020202020202000000000A1
:103E9000383070696E202020202020200000000093
:103EA000383170696E202020202020200000000082
:103EB00031303070696E202020202020000000006A
:103EC00031303470696E2020202020200000000056
:103ED00031343470696E2020202020200000000042
:103EE00031393670696E202020202020000000002B
:103EF00032353670696E202020202020000000001E
:103F0000502D666C617368206F6E6C790A0000003A
:103F100080B50100C9B20220FEF7B8FA01BD000069
:103F20004A5441472052657365740A004C4C5755FA
:103F30002052657365740A00666C617368C6F4B6D6
:103F4000AF0A00005352414DC6F4B6AF0A0000005C
:103F5000C046C046C046C046FFF7A0FEB2E6B3B5B5
:103F6000B6D300000A4B31302D0000000A4B32302E
:103F70002D0000000A4B33302D0000000A4B343076
:103F80002D0000000A4B36302D0000000A4B373060
:103F90002D0000000A4B35302D0000000A4B353350
:043FA0002D000000F0
:0400000500003F5167
:00000001FF
