:10000000F8FF002011040000B1420000B1420000DE
:10001000B1420000B1420000B1420000B142000014
:10002000B1420000B1420000B1420000B142000004
:10003000B1420000B1420000B1420000B1420000F4
:10004000B1420000B1420000B1420000B1420000E4
:10040000FFFFFFFFFFFFFFFFFFFFFFFFFEFFFFFFFD
:1004100062B64FF000004FF000014FF000024FF0C5
:1004200000034FF000044FF000054FF000064FF0BE
:1004300000074FF000084FF000094FF0000A4FF09E
:10044000000B4FF0000C02F019FEFEE730B4030081
:100450000C0015006A1E002D04D025781D70641C48
:100460005B1CF6E730BC704710B403001400621E3A
:10047000002C02D019705B1CF8E710BC704770B4F8
:1004800003001C000D0000201600721E002E06D076
:1004900020782E78801B6D1C641C0028F4D070BC62
:1004A00070470278002A04D002788A4201D0401CAA
:1004B000F7E700787047F8B504000D00E06A060021
:1004C000AE4232D02079002821D00123320014F12D
:1004D0003001607801F074FC002801D0012025E093
:1004E00000202071206AE169081886420FD2E07866
:1004F0000700FFB2022F0AD3E069861901233200F8
:1005000014F13001607801F05BFC7F1EF1E7002DF3
:100510000BD001232A0014F13001607801F0B5FB03
:10052000002801D0012001E0E5620020F2BD38B5CD
:10053000040000212000FFF7BEFF0500EDB2002DF2
:100540005ED12078032852D1607900284FD0002056
:10055000E0624FF40072002114F13000FFF784FFD5
:10056000552084F82E02AA2084F82F02522084F805
:100570003000522084F83100612084F8320041209C
:1005800084F83300722084F81402722084F8150273
:10059000412084F81602612084F81702206984F84B
:1005A0001802206980B2000A84F819022069000C40
:1005B00084F81A022069000E84F81B02E06884F8AF
:1005C0001C02E06880B2000A84F81D02E068000C9A
:1005D00084F81E02E068000E84F81F02012362699D
:1005E00014F13001607801F0EBFB00206071002213
:1005F0000021607801F078FC002801D0012005007E
:100600002800C0B232BD0200891E9069801E81425E
:1006100001D3002003E09078926A00FB012070472C
:100620002DE9F04104000D00022D02D3A06985429E
:1006300001D3012073E02078012804D06DD3032872
:100640004BD031D369E0A84618EB5808206A10EB6C
:1006500058212000FFF72FFF00285ED14FF40070D3
:10066000B8FBF0F101FB1081081990F8300006008A
:1006700018F10108206A10EB58212000FFF71BFF3A
:1006800000284AD14FF40070B8FBF0F101FB108153
:10069000081990F8300056EA0026E80701D530091D
:1006A00001E03005000D3AE0206A10EB1521200032
:1006B000FFF701FF002830D168004FF40071B0FB54
:1006C000F1F202FB1102101900F2300007007878F5
:1006D000397851EA002080B221E0206A10EBD51170
:1006E0002000FFF7E8FE002817D1A8004FF40071A2
:1006F000B0FBF1F202FB1102101900F2300007000A
:10070000F878B978090451EA0060797850EA012054
:10071000397808430001000901E05FF0FF30BDE8CF
:10072000F0812DE9F84304000D001600022D02D3DC
:10073000A069854202D302208146A6E020780128E4
:1007400005D0C0F09E80032870D050D399E02F00D0
:1007500017EB5707206A10EB57212000FFF7ABFE7D
:1007600081465FFA89F9B9F1000F40F08C804FF4AF
:100770000070B7FBF0F101FB1071081900F23000B6
:1007800080462800C00706D598F8000010F00F003A
:1007900050EA061000E0300088F800007F1C0120BD
:1007A0002071206A10EB57212000FFF784FE81465C
:1007B0005FFA89F9B9F1000F65D14FF40070B7FB0A
:1007C000F0F101FB1071081900F23000804628009A
:1007D000C00701D5300907E098F8000010F0F000DC
:1007E000310A11F00F01084388F800004BE0206A3D
:1007F00010EB15212000FFF75EFE81465FFA89F9B4
:10080000B9F1000F3FD168004FF40071B0FBF1F275
:1008100002FB1102101900F23000804688F80060D7
:10082000300080B2000A88F801002CE0206A10EB4A
:10083000D5112000FFF73FFE81465FFA89F9B9F133
:10084000000F20D1A8004FF40071B0FBF1F202FBC1
:100850001102101900F23000804698F803000006DB
:1008600010F07040064388F80060300080B2000A43
:1008700088F80100300C88F80200300E88F8030078
:1008800001E002208146012020714846C0B2BDE847
:10089000F283F8B504000D00022D02D3A069854251
:1008A00002D3022006002AE000200600A06985424B
:1008B00025D229002000FFF7B3FE0700002F1ED02D
:1008C000012F02D10220060019E017F1010F02D119
:1008D0000120060013E0002229002000FFF721FF7D
:1008E0000600F6B2002E0AD1206910F1010F04D0E3
:1008F0002069401C2061012060713D00D6E7300076
:10090000C0B2F2BD2DE9F84304000D00002D0AD15C
:10091000E0688046B8F1000F02D0A069804511D38D
:10092000012080460EE029002000FFF779FE060036
:10093000022E01D2012051E0A069864201D230008E
:100940004CE0A84647467F1CA069874205D3022099
:100950000700B84501D2002040E039002000FFF731
:100960005FFE0600002E0CD17FF07042390020009F
:10097000FFF7D7FE81465FFA89F9B9F1000F13D16D
:100980000AE016F1010F01D0012E01D1300025E05F
:100990004745D8D1002021E0002D05D03A0029009C
:1009A0002000FFF7BEFE81465FFA89F9B9F1000F1A
:1009B0000AD1E760206910F1010F0ED02069401EB6
:1009C00020610120607108E05FFA89F9B9F1010F37
:1009D00002D15FF0FF3700E001273800BDE8F28365
:1009E000F8B504000D00E580A0680600012E03D0D4
:1009F00020688069864201D302204CE0002E06D197
:100A000020680078032802D12068406A0600002E82
:100A10000ED1E66020680089ADB2854201D3022084
:100A200039E02068406AADB210EB1510206125E076
:100A30002068807880B200010700ADB2BFB2BD422D
:100A400013D331002068FFF7EBFD060016F1010F0C
:100A500001D101201FE0022E03D320688069864265
:100A600001D3022017E0ED1BE7E7E66031002068C4
:100A7000FFF7C9FDADB210EB15102061ADB210202B
:100A8000B5FBF0F101FB1051206810EB411000F2B2
:100A9000300060610020F2BD2DE9F04104000F003C
:100AA000E088401C0600B6B2002E02D02069002863
:100AB00001D104208FE0B6B21020B6FBF0F101FBAB
:100AC0001061002979D12069401C2061E06800286C
:100AD00006D120680089B6B286426ED304207AE03F
:100AE000B6B2300921688978491E084265D1E168AB
:100AF0002068FFF795FD0500022D01D202206AE073
:100B000015F1010F01D1012065E02068806985425F
:100B10004DD3002F01D104205DE0E1682068FFF78C
:100B2000F1FE0500002D01D1072054E0012D01D177
:100B3000022050E015F1010F01D101204BE000210E
:100B40002068FFF7B8FC002801D0012043E04FF4F3
:100B50000072002120683030FFF786FC29002068F1
:100B6000FFF751FD2168C862002080462068807828
:100B70005FFA88F8804512D22068012101710021B6
:100B80002068FFF798FC002801D0012023E02068AE
:100B9000C06A401C2168C86218F10108E6E72068B5
:100BA000C06A5FFA88F8B0EB08002168C862E560A7
:100BB00029002068FFF727FD2061E680B6B21020EB
:100BC000B6FBF0F101FB1061206810EB411000F260
:100BD000300060610020BDE8F081F8B5040000211C
:100BE0002000FFF7FDFE0700FFB2002F02D0380003
:100BF000C0B225E021692068FFF75DFC0700FFB265
:100C0000002F1BD16069060030780500EDB2002D81
:100C100002D10420070011E0F07A000706D40B226D
:100C2000A1693000FFF72BFC002807D0002120002D
:100C3000FFF732FF0700FFB2002FDBD03800C0B251
:100C4000F2BDF8B5040000212000FFF7C9FE050041
:100C5000EDB2002D19D121692068FFF72CFC0500A9
:100C6000EDB2002D11D1606900780600F6B2E52ED4
:100C700002D0F6B2002E00D107E001212000FFF7DC
:100C80000BFF0500EDB2002DE5D0EDB2002D16D121
:100C900021692068FFF70FFC0500EDB2002D0ED191
:100CA00060690700202200213800FFF7DDFB0B22DE
:100CB000A1693800FFF7CAFB2068012101712800F3
:100CC000C0B2F2BD2DE9F34F81B0029800688346AF
:100CD0009BF800002F2803D09BF800005C2802D16D
:100CE0001BF1010BF4E70198806907000B2220211A
:100CF0003800FFF7B9FB00200400C0B282468146ED
:100D00000820804619F80B00050019F10109EDB221
:100D1000212D05D3EDB22F2D02D0EDB25C2D07D1E0
:100D200019EB0B0002990860EDB2212D61D25EE053
:100D3000EDB22E2D01D0C2450DD3B8F1080F02D16E
:100D4000EDB22E2D01D0062072E0082082460B2045
:100D50008046A400D6E7EDB2802D01D354F0030401
:100D6000EDB2812D22D3EDB2FF2D1FD219F80B0069
:100D7000060019F10109F6B2402E02D3F6B27F2E19
:100D800005D3F6B2802E06D3F6B2FF2E03D2B8F109
:100D90000100824501D306204AE00AF807501AF103
:100DA000010A0AF807601AF1010AABE7EDB229005F
:100DB000DFF83006FFF775FB002801D0062037E08A
:100DC000EDB2412D05D3EDB25B2D02D254F00204F9
:100DD00008E0EDB2612D05D3EDB27B2D02D254F0C7
:100DE0000104203D0AF807501AF1010A8AE7042598
:100DF00000E00025BAF1000F01D1062018E0387894
:100E0000E52801D105203870B8F1080F00D1A40001
:100E1000E4B214F00300012801D155F01005E4B24A
:100E200014F00C00042801D155F00805FD720020D3
:100E3000BDE8FE8FF2B50400009800782F2803D09B
:100E4000009800785C2802D10098401C0090002097
:100E5000A06000980078202807D200212000FFF72A
:100E6000BFFD05000020606131E000A92000FFF710
:100E700029FF0500EDB2002D29D12000FFF7ADFEBE
:100E80000500A069C07A0700EDB2002D07D0EDB2D1
:100E9000042D1CD1780701D40520050017E0780740
:100EA00015D460690600F07AC00602D4052005005A
:100EB0000DE0707D317D51EA002080B2F17EB27E7E
:100EC00052EA012189B251EA0040A060CDE7280032
:100ED000C0B2F2BD38B504000D0001232A0014F1A0
:100EE0003001607800F0D1FE002801D003202DE011
:100EF00094F82F0294F82E1251EA00204AF6552158
:100F000080B2884201D0022020E094F8680094F872
:100F10006710090251EA004094F866100843DFF8B0
:100F2000C814884201D1002010E094F8840094F89D
:100F30008310090251EA004094F882100843DFF858
:100F4000A814884201D1002000E0012032BD2DE923
:100F5000F74F86B00698D0F8009099F80000303826
:100F6000019001980A2809D299F801003A2805D180
:100F700019F102090698C0F8009001E000200190E4
:100F80000198002801D00B20F8E10198DFF85C14EB
:100F900051F82000824607990860BAF1000F01D18C
:100FA0000C20EBE19AF80000002815D09AF8010017
:100FB00000F0F7FF8DF800009DF80000C0070BD48B
:100FC0009DF82000002805D09DF80000400701D5BD
:100FD0000A20D3E10020D1E100208AF80000019826
:100FE0008AF801009AF8010000F09CFC8DF80000DE
:100FF0009DF80000C00701D50320BFE19DF8200047
:10100000002805D09DF80000400701D50A20B5E171
:1010100000218B465046FFF75DFF0400E4B2012C2F
:1010200023D100200600F6B2002E00D0761EF6B2C4
:101030001AEB061000F2EE100290029800790028D8
:1010400013D00298C07A0299897A090451EA0060A3
:101050000299497A50EA01200299097A08438346A5
:1010600059465046FFF736FF0400E4B2032C01D185
:10107000012083E1E4B2002C01D00D207EE19AF83A
:101080003C009AF83B1051EA00204FF4007180B206
:10109000884201D00D2071E19AF847009AF8461075
:1010A00051EA002080B20700002F0ED19AF85700B5
:1010B0009AF85610090451EA00609AF8551050EA5F
:1010C00001209AF8541008430700CAF81C709AF8D7
:1010D000400005008AF80300EDB2012D04D0EDB206
:1010E000022D01D00D2049E1EDB26F439AF83D0089
:1010F00005008AF80200EDB2002D04D0691E280018
:10110000C0B2084201D00D2038E19AF842009AF8A6
:10111000411051EA0020AAF80800BAF8080010218E
:10112000B0FBF1F202FB1102002A01D00D2025E1F3
:101130009AF844009AF8431051EA002080B20490D3
:10114000049800280ED19AF853009AF85210090416
:1011500051EA00609AF8511050EA01209AF85010B4
:10116000084304909AF83F009AF83E1051EA002094
:10117000ADF80200BDF80200002801D10D20FDE00D
:10118000BDF8020017FA80F0BAF8081010EB111041
:10119000059004980599884201D20D20EEE004984C
:1011A0000599401A9AF80210B0FBF1F003900398E9
:1011B000002801D10D20E1E001200400039840F651
:1011C000F671884201D30220040003984FF6F671AD
:1011D000884201D3032004000398801CCAF8180039
:1011E000059810EB0B00CAF82800BDF802001BFAA6
:1011F00080F0CAF82000E4B2032C1AD1BAF8080033
:10120000002801D00D20B9E09AF85F009AF85E102E
:10121000090451EA00609AF85D1050EA01209AF83A
:101220005C100843CAF82400DAF8180080008046F1
:101230001CE0BAF80800002801D10D209EE0DAF881
:1012400020003818CAF82400E4B2022C04D1DAF8DD
:1012500018005FEA400809E0DAF818000321484363
:101260009AF8181011F0010111EB5008DAF81C007F
:1012700008F2FF11B0EB512F01D20D207EE05FF09C
:10128000FF30CAF810000020CAF80C00E4B2032CAA
:1012900064D100208AF805009AF861009AF860107D
:1012A00051EA00201BFA80F0CAF814000123DAF892
:1012B00014201AF130019AF8010000F0E6FC002831
:1012C0004CD19AF82F029AF82E1251EA00204AF6D1
:1012D000552180B2884241D19AF833009AF83210F1
:1012E000090451EA00609AF8311050EA01209AF896
:1012F000301008433E49884230D19AF817029AF8D4
:101300001612090451EA00609AF8151250EA0120F9
:101310009AF814120843374988421FD19AF81F02DD
:101320009AF81E12090451EA00609AF81D1250EA58
:1013300001209AF81C120843CAF80C009AF81B0204
:101340009AF81A12090451EA00609AF8191250EA40
:1013500001209AF818120843CAF810008AF80040D1
:1013600025480088401C24490880AAF8060000206F
:10137000CAF82C0000208AF80400002009B0BDE85B
:10138000F08F38B504000D00002C06D0207800281E
:1013900003D0E088ADB2A84201D0092007E0607810
:1013A00000F0FFFDC00701D5032000E0002032BDA2
:1013B0000200D2B2012A01D30B2011E0D2B20B48B5
:1013C00050F822000300002B01D0002018700029E3
:1013D00001D000200870D2B2044840F8221000204A
:1013E00070470000D844000046415400AC04FF1F81
:1013F0005252614172724161E006FF1F2DE9F243D2
:101400008AB0040017000020206017F01F0717F0B3
:10141000FE0200A90AA8FFF79AFD050007A806909A
:10142000EDB2002D04D10A9900A8FFF703FD0500D5
:1014300005980600EDB2002D03D1002E01D1062043
:1014400005001C20074267D0EDB2002D0BD0EDB295
:10145000042D03D100A8FFF7F4FB050057F008079F
:10146000059806000AE0F07A1121084202D0072010
:10147000050003E0780701D508200500EDB2002D36
:101480005AD1380758D500F0ABFD804686F80E805B
:10149000404680B2000AF0735FEA184030745FEA99
:1014A000186070740020F072002030770020707790
:1014B0000020B0770020F077707D317D51EA002068
:1014C00080B2F17EB27E52EA012189B251EA004037
:1014D00081460020B0760020F07600203075002094
:1014E0007075009801210171B9F1000F24D00098A6
:1014F000C06A804649460098FFF7CBF90500EDB277
:10150000002D19D10098B9F10101C1604146009840
:10151000FEF7D1FF05000FE0EDB2002D0CD1F07AFF
:10152000C00602D50420050006E0B80704D5F07A0D
:10153000C00701D507200500EDB2002D07D13807FF
:1015400001D557F020070098C06AE0612662EDB22D
:10155000002D21D1A771707D317D51EA002080B22C
:10156000F17EB27E52EA012189B251EA0040206147
:10157000F07FB17F090451EA0060717F50EA0120D9
:10158000317F0843E0600020A0600020A061009847
:1015900020600098C088A0802800C0B20BB0BDE8D1
:1015A000F0832DE9FB4F04001500DDF804B002982C
:1015B00000210160A1882068FFF7E3FE8DF800009C
:1015C0009DF80000002802D09DF8000007E1A079F6
:1015D000000601D5022002E1A079800701D407208E
:1015E000FDE0E0682818E168884201D2002005008B
:1015F000002D00F0E980A0684FF40071B0FBF1F21B
:1016000002FB1102002A40F0A480A068400A216871
:101610008978491E084082465FFA8AFABAF1000FBB
:1016200027D1A06800280AD120690600002E0BD11E
:1016300000212068FFF766F90600206104E0616977
:101640002068FFF75FF90600002E00F0BD80012E34
:1016500005D1A07950F08000A0710220BFE016F102
:10166000010F05D1A07950F08000A0710120B6E0F3
:1016700066612068C06AA16988420BD10021206898
:10168000FEF719FF002805D0A07950F08000A07166
:101690000120A4E061692068FEF7B5FF0700002F74
:1016A00005D1A07950F08000A071022097E057FA90
:1016B0008AF7680A8146B9F1000F37D02068807830
:1016C00059FA8AF1884206D2206880785FFA8AFA4D
:1016D000B0EB0A0081464B46DBB23A00594620681F
:1016E000407800F06DFB002805D0A07950F0800014
:1016F000A071012073E02068C06AC01B48450FD26A
:101700004FF400722068C06AC01B4FF4007101FBE7
:1017100000B120683030FEF799FE20680021017189
:101720004FF4007000FB09F080463EE0A068E168DD
:1017300088420DD300212068FEF7BDFE002805D0A9
:10174000A07950F08000A071012048E02068C762B5
:10175000A7614FF40070A1684FF40072B1FBF2F37F
:1017600003FB1213C01A8046454500D2A846A16962
:101770002068FEF7A0FE002805D0A07950F0800078
:10178000A07101202BE042465946A0684FF4007337
:10179000B0FBF3FC0CFB130C20681CEB000030309A
:1017A000FEF754FE20680121017118EB0B0BA068B5
:1017B00018EB0000A0600298006818EB0000029986
:1017C0000860B5EB080513E7E068A168884201D21C
:1017D000A068E060A07950F02000A0710020BDE872
:1017E000FE8FF8B50400A1882068FFF7CAFD050048
:1017F000EDB2002D41D1A07980063ED5E169206887
:10180000FEF759FE0500EDB2002D36D1206A070023
:10181000F87A50F02000F872E0683877E06880B21B
:10182000000A7877E068000CB877E068000EF87777
:101830002069B876206980B2000AF8762069000C29
:1018400038752069000C80B2000A787500F0C8FB7A
:101850000600BE75300080B2000AF875300C38768C
:10186000300E7876A07910F0DF00A0712068012199
:1018700001712068FEF75BFE05002800C0B2F2BDD2
:1018800038B504002000FFF7ACFF0500EDB2002DD5
:1018900001D1002020602800C0B232BD7CB5040018
:1018A0000D00E4B20A2C03D129000D20FFF7F6FF4A
:1018B0008DF800400120060001AB320000A928008D
:1018C000FFF76FFE0198B04201D1012001E05FF007
:1018D000FF3076BD70B504000D00002006002078B2
:1018E00000280CD029002078FFF7D8FF10F1010F55
:1018F00002D15FF0FF3003E0641C761CEFE730009C
:1019000070BD50F8041B61B150F8042BD30744BFDD
:10191000A9F101039A18002342F8043B091FFAD1E8
:10192000EFE770472DE9F04389B00400DFF88476D3
:10193000DFF88486DFF88406C8F80000E4B2002CE3
:1019400001D0012050E1DFF878060078800703D548
:10195000DFF86C06007847E1DFF8640600780321C1
:10196000084201D100203FE1B8F1000F03D0D8F8C0
:101970000000002801D1002036E1DFF84806386079
:10198000012078600020C8F804000020C8F8080092
:101990000020C8F81000002088F80C00002088F80B
:1019A0000D00DFF82406006850F40030DFF8181648
:1019B0000860002141F2013000F0D2FC002801D083
:1019C000002011E10020009000A941F2033000F056
:1019D000C7FC002801D0002006E10098022808D0AA
:1019E0000098032805D00098052802D00098062802
:1019F0001DD10098032802D00098062802D10120AA
:101A000088F80C0002208DF8040000208DF80500F5
:101A10000020029000208DF80C000020049001A905
:101A200041F2023000F09CFC002802D103E00020CB
:101A3000DAE00020D8E003208DF8040000208DF8C3
:101A400005000020029000208DF80C00002004907A
:101A500001A941F2023000F083FC002801D00020EF
:101A6000C2E00598000C0004C8F8100009208DF8A9
:101A7000040000208DF80500D8F810000290002026
:101A80008DF80C000020049001A941F2023000F012
:101A900067FC002801D00020A6E0089810F4400F51
:101AA0001ED10798C0F3032006009DF81C0010F01B
:101AB000030081460698800D50EA89290698C0F3F4
:101AC000C210050019F101000121AA1C91404843F0
:101AD00001213200093A91404843C8F808000BE060
:101AE000012088F80D000698C0F31520814619F1F1
:101AF00001008002C8F8080007208DF804000020CB
:101B00008DF80500D8F81000029000208DF80C0028
:101B10000020049001A941F2023000F021FC0028CD
:101B200001D0002060E010208DF8040000208DF826
:101B300005004FF40070029000208DF80C0000208A
:101B4000049001A941F2023000F00AFC002801D003
:101B5000002049E0D8F800000068012837D137207C
:101B60008DF8040000208DF80500D8F810000290D0
:101B700000208DF80C000020049001A941F20230F1
:101B800000F0EEFB002801D000202DE046208DF86B
:101B9000040000208DF805000220029000208DF83E
:101BA0000C000020049001A941F2023000F0D8FBA3
:101BB000002801D0002017E00120009000A941F288
:101BC000073000F0CDFB002801D000200CE0DFF84A
:101BD000F003007810F0FE00DFF8E4130870DFF87F
:101BE000E003007810F0030009B0BDE8F083F0B422
:101BF00002001600DFF8D4030700002F01D10020F7
:101C000041E03868022808D03868032805D03868D1
:101C1000072802D03868082804D1DFF8B403006828
:101C20004007FAD40B00002B2CD0B3F5007F02D96B
:101C30004FF4007400E01C00E01C80080500002D3B
:101C40001ED0DFF89003006810F4E00F0CD0DFF82E
:101C50008403006840F4E00050F02000DFF874C313
:101C6000CCF8000000200EE0DFF8640300680005F7
:101C7000FAD5DFF8640300683060361D6D1EDEE7BC
:101C80001B1BD0E70120F0BC70472DE9F04188B064
:101C900004000D0090461E00C74FE4B2002C02D194
:101CA000F6B2002E01D1042058E0C5480078C007E4
:101CB00001D5032052E0002D01D104204EE0387BF5
:101CC000002803D14FF4007000FB08F8F6B2012E93
:101CD0001DD111208DF8000000208DF80100CDF8F5
:101CE000048001208DF80800F6B2039600A941F2A5
:101CF000023000F035FB002829D14FF40071280094
:101D0000FFF775FF002822D0002006001FE01220F8
:101D10008DF8000000208DF80100CDF8048001202E
:101D20008DF80800F6B2039600A941F2023000F0E7
:101D300017FB00280BD1F6B24FF4007000FB06F140
:101D40002800FFF754FF002801D000200600F6B25B
:101D5000002E01D0012000E00020C0B208B0BDE894
:101D6000F08170B4020013000C00002C25D0B4F5F3
:101D7000007F02D94FF4007500E02500641BE81CC9
:101D80008508002DF1D09348006810F4E00F0AD0C8
:101D90009048006840F4E00050F010008D4E306034
:101DA0005FF0FF300AE08A4800684005FBD58A48AA
:101DB0001E6806601B1D6D1EE3E7012070BC7047A6
:101DC0002DE9F04188B004000D0090461E007A4FC6
:101DD000E4B2002C02D1F6B2002E01D1042080E042
:101DE00077480078C00701D503207AE0744800786E
:101DF000400701D5022074E0002D01D1042070E0DD
:101E0000387B002803D14FF4007000FB08F8F6B2CD
:101E1000012E1DD118208DF8000000208DF8010042
:101E2000CDF8048000208DF80800F6B2039600A9D2
:101E300041F2023000F094FA002829D14FF40071E9
:101E40002800FFF78EFF002822D0002006001FE0A8
:101E500019208DF8000000208DF80100CDF80480D5
:101E600000208DF80800F6B2039600A941F2023076
:101E700000F076FA00280BD1F6B24FF4007000FBA8
:101E800006F12800FFF76DFF002801D000200600B2
:101E90000D208DF8000000208DF8010038690190B8
:101EA00000208DF808000020039000A941F20230C4
:101EB00000F056FA002801D0012012E004984749AA
:101EC000084201D001200CE0049810F4F850B0F55D
:101ED000106FDDD1F6B2002E01D0012000E000200D
:101EE000C0B208B0BDE8F0812DE9F04188B004002F
:101EF0000D001600DFF8C080E4B2002C01D00420F1
:101F00004CE0012007002E480078C00701D50320CF
:101F100044E0EDB2002D05D0022D0CD005D3032DE9
:101F20000FD037E00020070036E0D8F80800306016
:101F30000020070030E04FF40070308000200700E0
:101F40002AE009208DF8000000208DF80100D8F863
:101F50001000019000208DF808000020039000A9D7
:101F600041F2023000F0FCF9002801D0012015E018
:101F7000079810F4400F0AD10698C0F38640401C21
:101F80000799090A11F00301491E884030600020BA
:101F9000070001E0042007003800C0B208B0BDE827
:101FA000F0810100C9B2002901D0012001E00448FC
:101FB00000787047CC06FF1FB004FF1FC404FF1F4A
:101FC0006004FF1F4046000030800440C804FF1F2B
:101FD00024100B4030100B4020100B400880D9FF1C
:101FE00000207047F0B580230F245FF0FF3C62466D
:101FF0005FF0020C6746B7F5807F16D85FF0010CE2
:102000006646112E0FD206FB07FC01FB0CFCBCEB55
:10201000000C6546002D04D4954202D22A003B00F4
:102020003400761CEDE77F00E5E7DFF808CADCF84E
:1020300000C03CF0080CDFF8FCE9CEF800C0DFF887
:10204000F4C9DCF800C0DFF8F0E91EEA0C0C6646C3
:102050005FEAC31C1CF47F4C5CEA060CB4F1010E71
:102060005FEA0E1E1EF0F00E5EEA0C0C5CF4602CB3
:10207000DFF8C0E9CEF800C0DFF8C0C9DCF800C066
:102080005FEA0C7CF8D5DFF8ACC9DCF800C05CF086
:10209000080CDFF8A0E9CEF800C0DFF8A4C9DCF82E
:1020A00000C05CF4801CDFF898E9CEF800C0F0BDF9
:1020B00038B504000D0000202060DFF87809DFF853
:1020C00084190160DFF86C090068C001FAD4DFF8F8
:1020D000780900210160DFF874095FF48131016043
:1020E000DFF86C0928210160DFF868095FF0011151
:1020F0000160DFF86419DFF8640900684FF47A7250
:102100005043FFF76FFFDFF83409006810F0030059
:102110000028F8D1DFF8480940F243410160DFF8B8
:10212000440940F243410160DFF83C094FF4886103
:102130000160DFF8380940F243410160DFF83009FF
:1021400040F243410160DFF82C0940F24341016055
:10215000DFF82409006850F40030DFF81C1908602B
:10216000DFF8DC084FF6FF710160DFF81009DFF8D7
:1021700010190160DFF8BC08006850F00060DFF85B
:10218000B4180860DFF8AC0800680001FAD4DFF882
:10219000AC080068C00301D501202060DFF8A0086A
:1021A000006850F08000DFF898180860002032BD09
:1021B000DFF88808006840F20731084201D00120AA
:1021C00000E00020C0B270470100DFF874281268F8
:1021D0000A4010000028F8D0704738B50400207875
:1021E00010F03F00DFF89C1851F820000500002D8A
:1021F00004D12078002801D00120B0E0DFF84008A9
:10220000006850F08000DFF838180860DFF82C080C
:102210000068C007FAD46068DFF86C18086035F40D
:1022200040056078800510F440000543607802287E
:1022300001D155F40015607804280DD115F4403013
:10224000B0F5003F04D135F4403555F4403503E096
:1022500035F4403555F40035DFF8F007006880B2FA
:10226000DFF8E8170860E06800281FD015F4403058
:10227000B0F5403F01D055F40015207A002801D078
:1022800055F01005E068022801D355F02005E068FC
:1022900010F1010F0AD0DFF8B4070068E16850EAD6
:1022A0000140DFF8A817086055F00205DFF8DC07E9
:1022B00000210160DFF8D8070560DFF8D807FFF7D5
:1022C00083FF01280BD0DFF87807006840F4702006
:1022D00050F00100DFF86817086001203FE0DFF8E8
:1022E00060070068000609D5DFF85407006850F061
:1022F0000110DFF84C170860012030E0DFF84007DC
:102300000068C0030AD5DFF83807006850F00110F4
:10231000DFF82C1708605FF0FF3020E015F4403F35
:1023200014D0DFF874070068206115F44030B0F570
:10233000803F0BD1DFF8640700686061DFF8600759
:102340000068A061DFF85C070068E061DFF8F00674
:10235000006850F00100DFF8E8160860002032BD88
:102360002DE9F34F8BB05FF00009DDF830A0DFF806
:1023700038070400002C02D140F6012057E3DFF8B3
:102380002C070A900A98002802D140F60B204EE351
:102390000A98006809900998002802D140F60B209D
:1023A00045E30B98C01E00F02783801F00F01983BF
:1023B00041F2F821401A18D0401E00F0D581401E8D
:1023C00000F0E382401E00F0DE81401E00F0F88144
:1023D000401E00F07782401E00F09782401E00F001
:1023E0003E82401E00F048821DE3DFF8C416200044
:1023F000FFF75EFE8146B9F1000F40F01783002021
:102400000500002006000020070000208DF80100D4
:102410000020804600208DF8000000208DF8040088
:1024200000208DF805000020029000208DF80C009F
:102430000020049001A8FFF7D0FE002802D0012060
:102440008146F3E208208DF8040000208DF8050095
:102450004FF4D570029000208DF80C0000200490FD
:1024600001A8FFF7BAFE8346BBF1000F08D105981B
:102470000299884202D001208146D7E2012080469D
:1024800001208DF800009DF80000002800F0F98080
:1024900037208DF8040000208DF805000020029000
:1024A00000208DF80C000020049001A8FFF795FE95
:1024B0008346BBF1010F02DB01208146B6E2BBF18E
:1024C000000F6CD50020060000200500002080468B
:1024D00001208DF8040000208DF80500DFF8D405F8
:1024E000029000208DF80C000020049001A8FFF756
:1024F00074FE002802D00120814697E2059810F072
:10250000C040B0F1005F01D10120804601200700EA
:1025100027208DF8040000208DF805004FF440605E
:10252000029000208DF80C000020049001A8FFF715
:1025300054FE002802D00120814677E20598000A67
:10254000CE2801D1012000E00020C0B2002800F018
:10255000988027208DF8040000208DF805004FF4A6
:102560005060029000208DF80C000020049001A81B
:10257000FFF733FE002802D00120814656E205987D
:10258000000AAA2801D1012000E00020C0B20028E2
:1025900077D00020070001208DF8010071E069204C
:1025A0008DF8040000208DF8050000200290002026
:1025B0008DF80C000020049001A8FFF70EFE002803
:1025C00002D00120814631E2059810F4401F58D016
:1025D000002083460A2000F06FFA1BF1010B372020
:1025E0008DF8040000208DF80500002002900020E6
:1025F0008DF80C000020049001A8FFF7EEFD0028E4
:1026000002D00120814624E069208DF804000020DA
:102610008DF805005FFA88F8B8F1000F03D0DFF8F5
:102620009404029002E05FF44010029000208DF8C4
:102630000C000020049001A8FFF7CFFD002802D075
:102640000120814605E00598002802D4BBF1640F03
:10265000C0DBB9F1000F40F0E981BBF1640F02DB90
:10266000002080460DE0012005005FFA88F8B8F1EF
:10267000000F06D0002080460598400001D50120BB
:102680008046FFB2002F01D0072020609DF8010096
:10269000002801D008202060F6B2002E01D00420CE
:1026A0002060EDB2002D08D0022020605FFA88F88B
:1026B000B8F1000F01D003202060F6B2002E0BD03D
:1026C000EDB2002D08D0052020605FFA88F8B8F13F
:1026D000000F01D006202060DFF884030021016094
:1026E000DFF8800300210160DFF87C030021016036
:1026F000DFF8780300210160DFF874030021016036
:10270000DFF870030021016009984168DFF84C038D
:1027100000684FF47A725043FFF764FCDFF840031F
:1027200040F243410160DFF83C0340F24341016065
:10273000DFF834034FF488610160DFF8300340F2C2
:1027400043410160DFF8280340F243410160DFF8B4
:10275000240340F243410160DFF81C03006850F499
:102760000030C549086061E15046FFF736FD8346F9
:10277000BBF1010F01DB02208146BBF1000F01D547
:102780000320814652E1BAF1000F02D10C208146AC
:1027900015E0A8480068C00910F4FF708346A548FA
:1027A0000068C0F30310401C00FB0BFBAB48006843
:1027B0004FF47A714843B0FBFBF0CAF8000035E1F2
:1027C000BAF1000F02D10C20814647E0DAF8000090
:1027D000002802D10C20814640E0FFF7E9FC0028E8
:1027E00039D19F48002101609E48002101609E4828
:1027F000002101609D48002101609D480021016089
:102800009C4800210160DAF80010944800684FF4F9
:102810007A725043FFF7E6FB914840F24341016072
:10282000904840F2434101608F484FF48861016055
:102830008E4840F2434101608D4840F243410160BF
:102840008C4840F2434101608B48006850F40030EE
:102850008949086002E040F60A208146E6E0BAF1C4
:10286000000F02D10C20814605E078480068C004C2
:10287000C00CCAF80000D9E0BAF1000F02D10C2058
:1028800081461EE0FFF794FC002817D1DAF800001B
:10289000B0F5805F02D30C20814612E06B480068DF
:1028A000400B40036949086068480068DAF8001086
:1028B000C904C90C08436549086002E040F60A20D3
:1028C0008146B3E0BAF1000F02D10C2081461BE033
:1028D0005F480068C0F341008346BBF1000F03D19D
:1028E0000020CAF800000FE0BBF1010F03D1012066
:1028F000CAF8000008E0BBF1100F03D10220CAF8AB
:10290000000001E00520814690E0BAF1000F02D1FD
:102910000C20814638E0FFF74BFC002831D1DAF873
:10292000000000280AD14A48006830F006004849F3
:102930000860474846490968016025E0DAF8000068
:1029400001280CD14248006830F006004049086078
:102950003F48006850F002003D49086014E0DAF892
:10296000000002280AD13A48006830F006003849D1
:102970000860374836490968016005E0052081464E
:1029800002E040F60A20814650E0BAF1000F02D181
:102990000C20814624E02748006850F0006025495B
:1029A0000860244800680001FBD425480068000640
:1029B00007D52348006850F08000214908600020B6
:1029C00020601E480068C00305D52068002804D197
:1029D0000120206001E0002020602068CAF800008B
:1029E00024E01C20CAF800000420CAF804004FF4B8
:1029F0001E70CAF8080019E00220FFF7E5FB104836
:102A0000006810F4E00F07D00D48006850F4E000B3
:102A10000B490860042081460948006850F03200E4
:102A20000749086002E040F60920814648460DB09B
:102A3000BDE8F08F2C100B400F00F0FF24100B406E
:102A400030100B4000800001C0100B4004100B4000
:102A500028100B4044100B4060CC0500D406FF1F2B
:102A600000D0044004D0044008D004400CD00440FE
:102A700010D0044014D004403080044034100B4087
:102A8000B3007F00C43C000008100B4000100B4056
:102A90000C100B4001000E0010100B4014100B40E6
:102AA00018100B401C100B40C804FF1FCC06FF1F62
:102AB00040460000000030400D49096851F0010116
:102AC0000B4A11600C4908600C4905220A6009494B
:102AD000096851F00101074A1160064909680906B1
:102AE000FBD50449096849084900024A116070474A
:102AF0003880044000000440080004400400044002
:102B000070B504000D0016003068012802D00228BC
:102B100005D00AE02000C0B27168884705E0B068BF
:102B20000470B068401CB060FFE72868401C286053
:102B300070BD2DE9F04704005FF0000A5046A14641
:102B40005FF0000A89F800A019F10109002A1FD0DE
:102B5000D1F800A05546002D05D15FF0300A89F864
:102B600000A0401C38E0002D36D095FBF3FA564605
:102B700003FB165A5746002F02D5FF43313700E0BA
:102B80003037350089F8007019F10109401CEAE777
:102B9000D1F800A0D446BCF1000F05D15FF0300A97
:102BA00089F800A0401C17E0BCF1000F14D0BCFB5A
:102BB000F3FAD64603FB1ECAD046B8F10A0F02D27A
:102BC00018F1300801E018F13708F44689F8008060
:102BD00019F10109401CE7E7BDE8F0872DE9F04154
:102BE00004000D0016001F00A046A84507DA3A00B1
:102BF00031003020FFF784FF18F10108F5E7BDE848
:102C0000F0812DE9F04104000D0016001F00A046E0
:102C1000A84507DA3A0031002020FFF771FF18F1CC
:102C20000108F5E7BDE8F0812DE9F24F92B004000C
:102C3000150000200090129883469BF80000059034
:102C4000002800F0F2810598252813D005980A285D
:102C500005D0220000A90598FFF752FF09E02200E5
:102C600000A90D20FFF74CFF220000A90A20FFF762
:102C700047FFD7E1002081460020039003980028F9
:102C800022D11BF1010B9BF8000020280ED0232835
:102C900012D02B2807D02D2802D0302809D00EE0E2
:102CA00059F00109EAE759F00209E7E759F0040988
:102CB000E4E759F00809E1E759F01009DEE7BBF154
:102CC000010B01200390D9E70020824600200390E9
:102CD0000398002813D11BF1010B9BF8000005900D
:102CE0003038092806D80A20059900FB0A10B0F1EF
:102CF000300AEDE7BBF1010B01200390E8E71BF17F
:102D0000010B9BF800002E2811D10020039003989E
:102D100000280ED11BF1010B9BF800003038092868
:102D200000D8F4E7BBF1010B01200390EFE7BBF102
:102D3000010B1BF1010B9BF800004C2806D0682802
:102D400002D06C2801D002E003E002E001E0BBF118
:102D5000010B1BF1010B9BF800000590582875D062
:102D6000622800F0D580632800F01D81642813D00C
:102D7000692811D06E2800F049816F2800F0BD80CD
:102D8000702800F0D080732800F01681752800F0BC
:102D9000D58078285AD040E1286806902D1D0A2356
:102DA000012206A909A8FFF7C4FE070009A83818E0
:102DB00006000698002803D52D2002907F1C0FE006
:102DC0004846800703D52B2002907F1C08E0484628
:102DD000400703D5202002907F1C01E000200290D4
:102DE000002004904846000711D50298002804D01E
:102DF000220000A90298FFF783FE0120049023001F
:102E000000AA51463800FFF7E9FE574612E048464F
:102E1000C0070FD4230000AA51463800FFF7F1FE87
:102E20000298002804D0220000A90298FFF768FE4B
:102E3000012004900498002807D10298002804D0AB
:102E4000220000A90298FFF75BFE98E02868019035
:102E50002D1D1023002201A909A8FFF76AFE070013
:102E600009A838180600002004904846000716D527
:102E70004846C0060BD5220000A93020FFF740FECF
:102E8000220000A97820FFF73BFE012004902300D8
:102E900000AA51463800FFF7A1FE57461BE04846FE
:102EA000C00718D44846C00600D5BF1C230000AA9E
:102EB00051463800FFF7A5FE4846C0060BD5220054
:102EC00000A93020FFF71CFE220000A97820FFF7A0
:102ED00017FE012004904846C0060DD5049800282E
:102EE0000AD1220000A93020FFF70AFE220000A923
:102EF0007820FFF705FEBF1C41E0286801902D1DDA
:102F00000823002201A909A8FFF713FE07001FE00C
:102F1000286801902D1D0223002201A909A8FFF7AE
:102F200008FE070014E0286801902D1D10230022E0
:102F300001A909A8FFF7FDFD070009E02868019035
:102F40002D1D0A23002201A909A8FFF7F2FD0700A1
:102F500009A8381806004846000707D5230000AA2C
:102F600051463800FFF73AFE574608E04846C0078A
:102F700005D4230000AA51463800FFF742FE3078FE
:102F8000002806D0220000A93078FFF7B9FD761E90
:102F9000F5E74846C00705D5230000AA514638008A
:102FA000FFF72FFE3EE0287807902D1D220000A994
:102FB0000798FFF7A5FD35E0286880462D1DB8F17C
:102FC000000F22D0404600F049F807004846C007ED
:102FD00005D4230000AA51463800FFF712FE98F8E6
:102FE0000000002808D0220000A998F80000FFF790
:102FF00087FD18F10108F2E74846C00705D5230010
:1030000000AA51463800FFF7FCFD0BE02868089045
:103010002D1D08980099016004E0220000A9059880
:10302000FFF76EFD1BF1010B07E6009813B0BDE83A
:10303000F08F0EB47EB50400012000900648019088
:1030400007A805002A00210000A8FFF7EDFD0600F3
:1030500030007EBC5DF810FBE945000001000A006D
:103060000023002A01D1002007E01000421C007854
:10307000002801D05B1CF8E71800704780B500F00D
:103080008DFA00F0A7FA00F005FBDFF8E803FFF780
:10309000D0FFDFF8E4030068DFF8E0134979491C4A
:1030A000B0FBF1F00090DFF8D0030068DFF8CC133C
:1030B0000979491CB0FBF1F3DFF8BC030068DFF8C5
:1030C000BC13C978491CB0FBF1F2DFF8AC0301680E
:1030D000DFF8AC03FFF7ADFFDFF8A8030078400787
:1030E00003D5DFF8A403FFF7A4FFDFF89803007807
:1030F000800703D5DFF89403FFF79BFFDFF8840315
:103100000078C00703D5DFF88803FFF792FFDFF8E8
:1031100084030078000603D5DFF87C03FFF789FFFE
:10312000DFF870030078400603D5DFF87003FFF77F
:1031300080FFDFF860030078800603D5DFF86003C6
:10314000FFF777FFDFF84C030078400703D5DFF87F
:103150005403FFF76EFFDFF83C030078800703D5C8
:10316000DFF84403FFF765FFDFF828030078C007A6
:1031700003D5DFF83803FFF75CFFDFF83403FFF710
:1031800058FFDFF83003DFF83013884204D0DFF84F
:103190002C03FFF74EFF03E0DFF82403FFF749FF9E
:1031A00000F003F800F0A4FAFEE780B5DFF814039E
:1031B0000068000910F0070000280BD0022813D087
:1031C0000DD3042819D014D306281ED019D30728EC
:1031D0001FD022E0DFF8F002FFF72BFF20E0DFF83E
:1031E000EC02FFF726FF1BE0DFF8E402FFF721FF08
:1031F00016E0B848FFF71DFF12E0B748FFF719FFC8
:103200000EE0B648FFF715FF0AE0B548FFF711FFDB
:1032100006E0B448FFF70DFF02E0B348FFF709FFEF
:10322000A848006810F00F00022812D0042814D01B
:10323000052816D0062818D007281AD008281CD030
:1032400009281ED00A2820D00C2822D00E2824D0ED
:1032500027E0A648FFF7EDFE26E0A548FFF7E9FEC8
:1032600022E0A448FFF7E5FE1EE0A348FFF7E1FED9
:103270001AE0A248FFF7DDFE16E0A148FFF7D9FEED
:1032800012E0A048FFF7D5FE0EE09F48FFF7D1FE01
:103290000AE09E48FFF7CDFE06E09D48FFF7C9FE15
:1032A00002E09C48FFF7C5FE86480068000B10F05E
:1032B0000F00002803D0022809D004D30BE0964861
:1032C000FFF7B7FE0AE09548FFF7B3FE06E0944823
:1032D000FFF7AFFE02E09348FFF7ABFE00F06AF89D
:1032E00091480068000E10F00F00072806D009284A
:1032F00008D00B280AD00F280CD00FE08B48FFF71E
:1033000098FE0EE08A48FFF794FE0AE08948FFF72E
:1033100090FE06E08748FFF78CFE02E08648FFF744
:1033200088FE86480068000203D58548FFF781FEC5
:103330001EE07D480068000F002806D0072808D04E
:1033400009280AD00F280CD00FE07E48FFF771FE45
:103350000EE07D48FFF76DFE0AE07C48FFF769FE4E
:1033600006E07A48FFF765FE02E07948FFF761FE64
:1033700078480068000B10F00F00052806D00728D9
:1033800008D008280AD009280CD00FE07248FFF7AF
:1033900050FE0EE07148FFF74CFE0AE07048FFF760
:1033A00048FE06E06F48FFF744FE02E06E48FFF774
:1033B00040FE01BDF8B56D48032101706C48002145
:1033C00001706C48002101706B48002101706B484E
:1033D000012101706A488021017069480078000667
:1033E000FBD5684800780400674800780500674806
:1033F00000780600664800780700FFB20097F6B232
:103400003300EDB22A00E4B221006248FFF711FE5A
:10341000564803210170564800210170554800218B
:10342000017055480421017054480121017054482D
:1034300080210170524800780006FBD55148007881
:1034400004005148007805005048007806005048B4
:1034500000780700FFB20097F6B23300EDB22A0001
:10346000E4B221004C48FFF7E4FD4548FF2101701C
:10347000F1BD000010420000D806FF1F8C04FF1FA2
:103480006840000000E0074018450000D0420000FE
:103490000446000001E007402845000038440000D1
:1034A000244300003C430000EC42000010460000B2
:1034B000304200000000FF1F000000001C4600001A
:1034C0002846000024800440484600005046000082
:1034D0005846000060460000684600007046000044
:1034E0007846000080460000B041000038450000EA
:1034F0004845000058450000684500007845000038
:103500008845000098450000A8450000B845000027
:10351000C8450000584100004C44000060440000D1
:1035200074440000B04000004C800440544300004C
:103530006C4300008443000050420000508004406F
:10354000D84500009C430000B4430000CC43000079
:103550007042000000700440884400009C44000059
:10356000B0440000C44400000843000007000240CB
:103570000600024005000240040002400F00024025
:10358000000002400B0002400A0002400900024015
:1035900008000240D84100009042000080B500F0D1
:1035A00009F80A4800884FF6FE710840074908806C
:1035B00001BD000072B606484CF22051018004485B
:1035C0004DF62811018062B67047000000200540CA
:1035D0000E2005402DE9F8432448254988420DD0A6
:1035E00000208046B8F5826F08D22048204951F863
:1035F000281040F8281018F10108F3E71B4800F0E4
:10360000CBF81C4807001C4806001C480400A01BFF
:1036100080464046B0F10108002804D03078387068
:10362000761C7F1CF5E71648814616480500B5EB69
:10363000090080464046B0F10108002805D000206E
:1036400089F8000019F10109F4E70F480F49104A01
:10365000531A98464346B3F10108002B04D00B7867
:103660000370491C401CF5E7BDE8F1830000FF1F13
:10367000000000006004FF1F1C40000068400000C4
:10368000AC04FF1FE206FF1F1004FF1F803F000075
:10369000D03F000080B51148006850F478500F49C1
:1036A0000860C82000F082F80D4908600C480068E6
:1036B0004FF47A7148430B4908600A4800680A4988
:1036C0000968C1F30361491CB0FBF1F007490860C8
:1036D0004FF41651022000F0EFF901BD388004408C
:1036E000D806FF1FD406FF1F44800440DC06FF1FDE
:1036F000F0B587B0ADF5F05D0020060041F658301A
:10370000864204DA19A831213154761CF6E71D4FA0
:1037100000200400642C04D200A800212154641C61
:10372000F8E741F6C83169440020FDF741FE132255
:10373000154941F6F8506844FDF760FE0500012D7B
:1037400003D11248FFF775FC17E0002D03D1104894
:10375000FFF76FFC02E00F48FFF76BFC41F6F851F2
:10376000694419A8FEF7B6F8652C01D3642004005B
:1037700041F6F8506844FEF783F807B00DF5F05DA8
:10378000F0BD0000E8440000F844000024440000BC
:1037900008450000F8450000014908607047000036
:1037A00008ED00E0DFF800F01104FF1F38B5040059
:1037B000E4B2002C00F01281E4B2200030281ED0C8
:1037C000322823D0602828D064282DD06E2832D00B
:1037D000782837D07D283CD0822841D08C2846D00C
:1037E00096284BD0A02850D0AA2855D0B4285AD01B
:1037F000C8285FD0E12864D0FA2869D06FE0A648D5
:1038000018210170A448002141706CE0A2481821E1
:103810000170A1480121417065E09F4818210170A5
:103820009D48182141705EE09B48182101709A481C
:103830001A21417057E098481821017096481F21BD
:10384000417050E094481321017093481821417051
:1038500049E09148132101708F481A21417042E0DC
:103860008D48132101708C481C2141703BE08A482F
:103870000E21017088481221417034E086480E21E3
:1038800001708548152141702DE083480E2101709B
:1038900081481821417026E07F480E2101707E4842
:1038A0001B2141701FE07C480E2101707A481E21C7
:1038B000417018E078480C21017077481C21417054
:1038C00011E075480B21017073481E2141700AE018
:1038D00071480A21017070481F21417003E0642083
:1038E000FFF764FFD6E06C4800218170E4B2972CAA
:1038F00003D269480021C17023E02000C0B240F229
:103900002D1180B2884203D263480121C17018E0B2
:103910002000C0B240F2C31180B2884203D25E4898
:103920000221C1700DE02000C0B240F2592180B2E6
:10393000884203D258480321C17002E056480F2143
:10394000C17055485449C9780171E4B21A2C03D2A8
:1039500051480021417141E0E4B2332C03D24E487A
:10396000012141713AE0E4B24C2C03D24A480221D1
:10397000417133E0E4B2652C03D247480321417121
:103980002CE0E4B27E2C03D243480421417125E0AF
:10399000E4B2972C03D24048052141711EE0E4B205
:1039A000B02C03D23C480621417117E0E4B2C92C87
:1039B00003D239480721417110E0E4B2E22C03D26E
:1039C00035480821417109E0E4B2FB2C03D23248AA
:1039D0000921417102E030480F2141712E484078A1
:1039E000183080B2322148432B490978491C89B2EA
:1039F00090FBF1F00500294800210170284800687B
:103A000050F08050264908602648007850F0800029
:103A10002449087024489821017024480078C00681
:103A2000FBD422480078C0F38100C0B20228F8D14C
:103A30001948007810F01F001D4908701D4800212A
:103A4000017015484379144802791348C178124827
:103A50008078FFF7A7FE1048407810F01F0050F064
:103A6000400014490870114800788006FBD50F48C3
:103A700000784006FBD50C48007810F03F000A495A
:103A800008700A480078C0F38100C0B20328F8D15A
:103A90002800C0B232BD00BF8C04FF1F01400640A9
:103AA0003480044008C007400040064006400640FD
:103AB0000440064005400640F0B4C0B2002808D0DB
:103AC000022824D014D304283FD02FD305284BD06C
:103AD00059E06B4E4FF4407737606A4E4FF44077B1
:103AE0003760694E366856F48066674F3E604AE03C
:103AF000664E4FF440773760654E4FF4407737603D
:103B0000614E366856F400665F4F3E603BE0614EA2
:103B10004FF440773760604E4FF4407737605A4E2D
:103B2000366856F48056584F3E602CE05B4E4FF49A
:103B3000407737605A4E4FF440773760524E3668C0
:103B400056F40056504F3E601DE0564E4FF44077FD
:103B50003760554E4FF440773760544E366856F410
:103B60008066524F3E600EE0514E4FF44077376012
:103B7000504E4FF4407737604C4E366856F400662E
:103B80004A4F3E60FFE7C0B24B4E56F82060F678D1
:103B900016F0F306C0B2484F57F82070FE70C0B25E
:103BA000454E56F820600027B770C0B2002801D1FA
:103BB000012600E00026C0B2012801D1012700E063
:103BC00000273E43F6B2002E06D03C4E36684FF436
:103BD0007A777E43350005E0394E36684FF47A77C0
:103BE0007E4335000E01B5FBF6F63200C0B2324E10
:103BF00056F82060367816F0E006340092B2160AC5
:103C000016F01F062643C0B22B4F57F820703E70A7
:103C1000C0B2294E56F8206072706E010F01B6FBDB
:103C2000F7F692B2B6EB42163300C0B2224E56F807
:103C30002060B67A16F0E0063400C0B21E4E56F888
:103C4000206013F01F072743B772C0B21A4E56F810
:103C50002060F67856F00C06C0B2174F57F8207067
:103C6000FE70F0BC7047C0B2134A52F8202012799F
:103C70001206F8D5C0B2104A52F82020D171704710
:103C800040A0044044A00440348004400CB00440F0
:103C900010B004400CC0044008C0044040B00440D0
:103CA00044B0044064D0044060D004402880044004
:103CB00024D0044020D004409404FF1FD406FF1FEA
:103CC000DC06FF1F000000000000000100000902E8
:103CD00000001A03000000040000020500001A069C
:103CE00000001B0700001A08000009090000090A6B
:103CF00000001A0B0000DB0C00001A0D0000000091
:103D00000000000F00001A1000001A1100001A1223
:103D10000000000000001A140000000000001A1645
:103D200000001A1700001A1800001A1900001A1AC9
:103D300000001A1B00001B1C00001B1D00001A1EA7
:103D40000000000000001A2000001A2100001A22C2
:103D500000001A2300001A2400001A2500001B2668
:103D60000000022700001A280000022900001B2A78
:103D70000000000000000000000000000000000043
:103D80000000000000000000000000000000000033
:103D900000001A3300001A3400001A350000000039
:103DA00000001A3700001B3800000000000000006F
:103DB0000000000000001B3C00001B3D0000000054
:103DC00000000000F8B504000D0016001F00EDB261
:103DD000202D02D2FFB2022F03D32421274800F066
:103DE00053F8EDB2E4B2264850F82400F6B24FF48E
:103DF0008071314340F82510F00705D5F6B2032E47
:103E000002D0F6B2132E0DD1E4B21E4850F82400B1
:103E100040690121A9408843E4B21A4951F82410AD
:103E200048612AE0E4B2174850F8240040690121B3
:103E3000A9400843E4B2134951F824104861FFB285
:103E4000012F0DD1E4B20F4850F824000068012181
:103E5000A9400843E4B20B4951F8241008600CE073
:103E6000E4B2084850F8240000680121A9408843C2
:103E7000E4B2044951F824100860F1BDF04000009C
:103E80007804FF1F6404FF1F38B504000D0000F024
:103E90000BF82A0021000348FFF7CBF800F02DF8BB
:103EA000F7E700BFD03F000080B5012301220C21BD
:103EB0000320FFF787FF012301220D210320FFF7D5
:103EC00081FF012301220E210320FFF77BFF012345
:103ED00001220F210320FFF775FF01BD1E4AD268A2
:103EE0001268012383409A43C9B211F00103834051
:103EF0001A43194BDB681A60704710B50123012281
:103F00000C210320FFF75EFF012301220D21032076
:103F1000FFF758FF012301220E210320FFF752FF74
:103F2000012301220F210320FFF74CFF0C20040086
:103F3000E4B2102C0ED200212000C0B2FFF7CEFF59
:103F4000642000F00BF801212000C0B2FFF7C6FF8B
:103F5000641CEDE710BD00006404FF1F002319007E
:103F6000814209D2054B1B681A00002A02D000BF0B
:103F7000521EFAE7491CF3E770470000DC06FF1FFA
:103F8000F0B4114E366834000F4E366856F47F0692
:103F90000D4F3E600E0616F0706656EA0076170565
:103FA00017F470073E431F0417F470273E43074F72
:103FB0003E6000263500EDB29D4201D26D1CFAE74D
:103FC000014E3460F0BC704700F001404480044072
:103FD000B6CFD1D4B7A2C9FAD4DA2573CEC4BCFE09
:103FE000B5C4B5DA2564D0D0A3A10AB6CFD1D4CC5C
:103FF000F5BCFEB2BBB3C9C1A2A3ACC7EBBCECB26B
:10400000E2B4EDCEF3D4ADD2F2A1A309A1AAA1AA44
:1040100020627920D2B0BBF00A0A00000100000043
:1040200000F00F4040F00F4080F00F40C0F00F4014
:1040300000F10F400090044000A0044000B0044094
:1040400000C0044000D004400B1F00000009000025
:1040500000A0064000B0064000C0064000D0064068
:1040600000A00E4000B00E40C4DABACBC6B5C2CA3A
:10407000A3BA25644D487A09D7DCCFDFC6B5C2CADA
:1040800020A3BA25644D487A0A666C6578C6B5C225
:10409000CAA3BA25644D487A2009666C617368C664
:1040A000B5C2CAA3BA25644D487A0A0A00000000C6
:1040B0000A546869732076657273696F6E206F6643
:1040C00020736F66747761726520646F65736E2705
:1040D00074207265636F676E697A65207468652005
:1040E0007265766973696F6E20636F64652E000078
:1040F000433A5C55736572735C6D6169646F755C9E
:104100004465736B746F705C342E33305C73726310
:104110005C647269766572735C6770696F5C677006
:10412000696F2E63000000000A2A2A2A2A64656645
:1041300061756C745F69737220656E746572656415
:10414000206F6E20766563746F722025642A2A2A98
:104150002A2A0D0A0A0000000A556E7265636F670D
:104160006E697A6564204B696E657469732070614D
:10417000636B61676520636F64652E2020202020BB
:104180002000000010B5084979441C31074C7C44DC
:104190001A34A14206D0081D0A6851188847014602
:1041A000A142F8D110BD00BF58000000640000001B
:1041B0000A556E7265636F676E697A6564204B6934
:1041C0006E657469732066616D696C7920646576CB
:1041D0006963652E0A000000466C61736820706197
:1041E00072616D657465722076657273696F6E2099
:1041F00025642E25642E25642E25640A0000000007
:1042000003D7FFFF38020000AC04FF1F00000000CE
:104210000A0A0909D2B0BBF06B696E65746973BA9A
:10422000CBD0C4B0E5B2E2CAD4B3CCD0F20A00001D
:104230000AD2B0BBF04B696E65746973BFAAB7A2AE
:10424000B0E5C6F4B6AFB7BDCABDA3BA0000000062
:10425000455252212120556E646566696E65642061
:10426000502D666C6173682073697A650A000000DE
:10427000455252212120556E646566696E65642041
:10428000466C65784E564D2073697A650A000000C9
:10429000466C6173682076657273696F6E2049445D
:1042A0002025642E25642E25642E25640A00000036
:1042B00080B5FFF7F9FDFFF720FE03480178C9B28A
:1042C0000248FEF7B6FE01BD04ED00E02841000003
:1042D000436F7265204C6F636B7570204576656E19
:1042E000742052657365740A000000004C6F772DCE
:1042F000766F6C74616765204465746563742052E1
:10430000657365740A000000455252212120556EE4
:10431000646566696E65642052414D2073697A65F3
:104320000A0A00005761746368646F6728434F503E
:10433000292052657365740A000000004C6F737386
:10434000206F6620436C6F636B2052657365740A3F
:1043500000000000313238206B4279746573206FA1
:104360006620502D666C6173680900003235362076
:104370006B4279746573206F6620502D666C617393
:1043800068090000353132206B4279746573206F03
:104390006620502D666C61736809000030206B4206
:1043A00079746573206F6620466C65784E564D0AA9
:1043B00000000000313238206B4279746573206F41
:1043C0006620466C65784E564D0A00003235362020
:1043D0006B4279746573206F6620466C65784E5623
:1043E0004D0A000000F009F8002801D0FFF7CAFECE
:1043F0000020FFF77DF900F002F80120704700F07F
:1044000001B800000746384600F002F8FBE700005C
:1044100080B5C046C046024A11001820ABBEFBE77B
:10442000260002000AC3BBB2E5C8EB5344BFA8A3F1
:10443000BFA3BF0A0000000045787465726E616C0E
:104440002050696E2052657365740A0053696C6967
:10445000636F6E2072657620312E302020200A0096
:1044600053696C69636F6E2072657620312E31203E
:10447000200A000053696C69636F6E2072657620B4
:10448000312E3220200A00003332206B42797465CD
:1044900073206F662052414D0A0A00003634206BAB
:1044A0004279746573206F662052414D0A0A0000FC
:1044B0003936206B4279746573206F662052414D06
:1044C0000A0A0000313238206B4279746573206F1C
:1044D000662052414D0A0A00222A2B2C3A3B3C3DD1
:1044E0003E3F5B5D7C7F0000C9BDB6ABBDBBCDA8C8
:1044F000D1A7D4BA00000000303A2F466972654453
:10450000656D6F2E747874000ACEC4BCFEB4F2BF21
:10451000AAB3C9B9A6200A00536F667477617265A1
:104520002052657365740A00506F7765722D6F6E47
:104530002052657365740A00333270696E20202042
:104540002020202000000000343870696E202020D8
:104550002020202000000000363470696E202020CA
:104560002020202000000000383070696E202020BC
:104570002020202000000000383170696E202020AB
:10458000202020200000000031303070696E202093
:10459000202020200000000031303470696E20207F
:1045A000202020200000000031343470696E20206B
:1045B000202020200000000031393670696E202054
:1045C000202020200000000032353670696E202047
:1045D0002020202000000000502D666C61736820B0
:1045E0006F6E6C790A00000010B504002100C9B29A
:1045F0000220FFF738FB10BD0AB7B5BBD8D6B5D23D
:10460000ECB3A3004A5441472052657365740A0015
:104610004C4C57552052657365740A00666C617383
:1046200068C6F4B6AF0A00005352414DC6F4B6AFA7
:104630000A000000C046C046C046C046FFF7D2FE92
:104640000000000040787D010A4B31302D00000051
:104650000A4B32302D0000000A4B33302D00000091
:104660000A4B34302D0000000A4B36302D0000007C
:104670000A4B37302D0000000A4B35302D0000006A
:084680000A4B35332D00000048
:04000005000046357C
:00000001FF
