:10000000F8FF002011040000D93F00003F3200003B
:10001000D93F0000D93F0000D93F0000D93F000080
:10002000D93F0000D93F0000D93F0000D93F000070
:10003000D93F0000D93F00004D3200003D320000A2
:1000400051320000D93F0000D93F0000D93F0000E5
:10005000EB310000D93F0000D93F0000D93F00003C
:10006000D93F0000D93F0000D93F0000D93F000030
:10007000D93F0000D93F0000D93F0000D93F000020
:10008000D93F0000D93F0000D93F0000D93F000010
:10009000D93F0000D93F0000D93F0000D93F000000
:1000A000D93F0000D93F0000D93F0000D93F0000F0
:1000B000D93F0000D93F0000D93F0000D93F0000E0
:1000C000D93F0000D93F0000D93F0000D93F0000D0
:1000D000D93F0000D93F0000D93F0000D93F0000C0
:1000E000D93F0000D93F0000D93F0000D93F0000B0
:1000F000D93F000079320000D93F0000D93F00000D
:10010000D93F0000D93F0000D93F0000D93F00008F
:10011000D93F0000D93F0000D93F0000D93F00007F
:10012000D93F0000D93F0000D93F0000D93F00006F
:10013000D93F0000D93F00004F320000D93F0000F6
:10014000D93F0000D93F0000D93F0000D93F00004F
:100150000732000019320000D93F0000D93F0000EB
:10016000D93F0000D93F0000D93F0000D93F00002F
:10017000D93F0000D93F0000D93F0000D93F00001F
:10018000D93F0000D93F0000D93F0000D93F00000F
:10019000D93F000065320000D93F0000D93F000080
:1001A000D93F00009731000019310000D93F00000D
:1001B000D93F0000D93F0000D93F0000D93F0000DF
:1001C000D93F0000D93F0000D93F0000D93F0000CF
:1001D000D93F0000D93F0000D93F0000D93F0000BF
:1001E000D93F0000D93F0000D93F0000D93F0000AF
:10040000FFFFFFFFFFFFFFFFFFFFFFFFFEFFFFFFFD
:1004100062B64FF000004FF000014FF000024FF0C5
:1004200000034FF000044FF000054FF000064FF0BE
:1004300000074FF000084FF000094FF0000A4FF09E
:10044000000B4FF0000C03F083FEFEE780B50A239B
:1004500003220821022001F040F8BDE800500923E2
:1004600002220D21032001F038B82DE9F047DFF812
:100470008C4C8246002500262F46A846A9464FF4FC
:100480008071204601F052F81A201AF8011B0A5D0B
:10049000521C0A551AF8012BC919135D51185B1C1F
:1004A00013551AF8012B135D51185B1C13551AF8DC
:1004B000012B135D51185B1C13551AF8012B135DAA
:1004C00057185B1C1355401EDFD1002044F2042155
:1004D0002278BAB100FB02889619822E16D0C6F196
:1004E0008202A7EB080CB8FBF6F3BCFBF2FCACEB0A
:1004F00003035B4373435A43B2FBF1F291453CBFA4
:1005000091460546401C641CFF28E1D9E8B2BDE8CD
:10051000F0872DE9F843DFF86C4CDFF86C9CA046BF
:100520003227DFF8685C2046FFF79FFF2880002213
:1005300040464946B5F800E090F800C05FFA8EFEEC
:10054000F4459B41DB0F0B70531CB5F9002090F86C
:1005500001C05FFA82FEF445B641F60F4E7090F886
:1005600002C05B1CD2B2F445B641F60F8E7090F813
:1005700003C05B1CF445B641F60FCE7090F804C082
:100580005B1C00F2050094456EEB0E0E4FEADE7E1A
:1005900081F804E05A1C01F20501822ACADB09F243
:1005A000820908F282087F1EBDD1BDE8F18330B414
:1005B000DFF8DC0B0221421C7F2312F8014C012CD6
:1005C00004BF5578012D01D115783DB1002C01BF34
:1005D0005478002C1478012C01D100241470521C82
:1005E0005B1EEAD18238491EE5D130BC70472DE947
:1005F000F04FDFF88C1BDFF8702B83B008461346F2
:10060000DFF8904BDFF8909B0A26812720F8027BC9
:10061000002723F8027B24F8027B29F8027B81273C
:1006200020F8027B002723F8027B24F8027B29F8BC
:10063000027B812720F8027B002723F8027B24F825
:10064000027B29F8027B812720F8027B002723F810
:10065000027B24F8027B29F8027B812720F8027BA9
:10066000002723F8027B24F8027B29F8027B761E00
:10067000CBD1DFF8143B01F2620903F5C054E23438
:1006800026460227402006F2400C1CF8015C002D93
:1006900001BF9CF80050012D9CF80150012D02D1A2
:1006A000A9F8000028E09CF80050401C002D01BF74
:1006B0009CF80150012D9CF80250012DF0D09CF8BF
:1006C0000150401C002D01BF9CF80250012D9CF8E8
:1006D0000350012DE4D09CF80250401C002D01BFB6
:1006E0009CF80350012D9CF80450012DD8D0401CDB
:1006F0000CF1040C8028C8DB823EA9F102097F1EA0
:10070000C0D102F2620902264FF0400C04F2400709
:1007100017F8015C012D01BF3D78012D7D78002D7A
:1007200002D1A9F800C01EE017F8025CACF1010C80
:10073000012D01BF17F8015C012D3D78002DF0D08F
:1007400017F8035CACF1010C012D01BF17F8025C36
:10075000012D17F8015C002DE3D0ACF1010CFF1E58
:10076000BCF1020FD4DA002812BF10F1010F0027EC
:10077000A9F80070823CA9F10209761EC4D1B1F932
:100780006000C41EC01C0FFA80FEB2F96000C61ED5
:1007900036B200F10309012EB8BF00260FFA84FC1F
:1007A000BCF1010FB8BF4FF0000CDFF8F0492F2764
:1007B000D4F8148007EB8715604603EB450500EB82
:1007C000050A00E0401C704513DA1AF801BBBBF1C2
:1007D000010FF7D1A0F1030C00F1030E0FFA8CFC0E
:1007E00021F817000FFA8EFEBCF1010FB8BF4FF0D1
:1007F000000C704571D1ACF103000EF1030E0FFA3D
:1008000080FC0FFA8EFEBCF1010FB8BF4FF0000C58
:100810006046451901E0401C6D1C70451EDA15F854
:1008200082ACBAF1010FF6D101EB470525F8020CB5
:10083000B5F902C000F1030E0FFA8EFE84440CEBF2
:10084000DC756D1021F81750C51E0FFA85FCBCF140
:10085000010FB8BF4FF0000C7F1E3FB270453CD176
:1008600007EB871503EB4505B846412005F2410526
:1008700015F801ABBAF1010F02D121F817002CE0F5
:1008800015F801AB401CBAF1010F1EBF401C15F852
:1008900001ABBAF1010FF0D015F801AB401CBAF171
:1008A000010F1EBF401C15F801ABBAF1010FE4D0D7
:1008B00015F801AB401CBAF1010F1EBF401C15F822
:1008C00001ABBAF1010F1EBF401C15F801ABBAF124
:1008D000010FD2D0401C8128CADB7F1E3FB2002FFF
:1008E0007FF568AF2069C4F81480012842D1B4F9BB
:1008F000147000202061012F3CDB07EB871001EB17
:10090000470C03EB400E41200EF2410818F8015B42
:10091000012D02D1ACF8000025E018F8015B401C65
:10092000012D1EBF401C18F8015B012D1EBF401C8D
:1009300018F8015B012DEDD018F8015B401C012D6A
:100940001EBF401C18F8015B012DE3D018F8015BB5
:10095000401C012D1EBF401C18F8015B012DD9D091
:10096000401C8128D2DB7F1EAEF1820EACF1020C5E
:10097000012FC8DA2F270FFA89F907EB87154846A8
:1009800003EB450C00EB0C0E00E0401E86420DDA36
:100990001EF80189B8F1010FF7D1C61E36B222F850
:1009A000170000F10309012EB8BF0026B0425ED146
:1009B000F61E36B209F10300012EB8BF00260FFA69
:1009C00080F94846844402E0401EACF1010C8642A6
:1009D00018DA1CF8825C012DF6D102EB470626F8E6
:1009E000020CB6F90290814409EBD976761022F810
:1009F0001760C61E36B200F10309012EB8BF0026EB
:100A00007F1E3FB2B04232D1012007EB8715206133
:100A100003EB450C676142200CF2420C1CF801E923
:100A2000BEF1010F02D122F8170020E01CF801E905
:100A3000401EBEF1010F1EBF401E1CF801E9BEF1B1
:100A4000010FF0D01CF801E9401EBEF1010F1EBFDE
:100A5000401E1CF801E9BEF1010F1EBF401E1CF82C
:100A600001E9BEF1010FDED0401E0128D6DA7F1E5B
:100A70003FB2012FBFF67FAF206901283DD1B4F905
:100A8000147000202061012F37DB07EB871002EB89
:100A9000470903EB4006422006F2420C1CF801E92C
:100AA000BEF1010F02D1A9F8000020E01CF801E915
:100AB000401EBEF1010F1EBF401E1CF801E9BEF131
:100AC000010FF0D01CF801E9401EBEF1010F1EBF5E
:100AD000401E1CF801E9BEF1010F1EBF401E1CF8AC
:100AE00001E9BEF1010FDED0401E0128D6DA7F1EDB
:100AF000823EA9F10209012FCDDA00208146E06390
:100B00002064312602F2620701F2620CB7F900504C
:100B1000002D04BFBCF90050812D03D1401C0328D7
:100B2000A8BFB14637F9025C761E002D04BF3CF920
:100B3000025C812D03D1401C0328A8BFB146761E5C
:100B40003F1FACF1040C002EE0D5C4F83890606370
:100B5000666B606AB61ED4F83080132E80F0FF807A
:100B60002F20D4F838C0A06203F5B857ACF10C00C0
:100B700002F25E0901F25E06DE370090B9F900E08C
:100B800039F8040CAEEB000000B2002848BF404228
:100B900000B2A061B9F80450A5EB0E050FFA85F874
:100BA000B8F1000F48BFC8F100080FFA88F5E561F9
:100BB000C4F82CE0062D1ADB062818DAA56AAC4525
:100BC000A1BF00988542B9F90200022827DB0EEB8D
:100BD000070A0AF2810090F80280407840449AF8AF
:100BE0008180404480B2022819D2E56317E00628CC
:100BF00015DB042D13DAA56AE06B85420FDB0EEBE3
:100C0000070AAAF1830B9BF802009BF8018040447D
:100C10001AF8838C404480B2022838BF2564B6F9A4
:100C200000A036F8040CAAEB000005B2002D48BF66
:100C30006D422DB22562B088A0EB0A0000B20028F8
:100C400048BF404200B2D046062823DB062D21DAF9
:100C5000A56AAC45A4BFDDF800E0754538DBB6F900
:100C600002E0BEF1810F33DA08EB070E0EF2810EBF
:100C70009EF802A09EF801E0D64408EB070A9AF815
:100C800081A05EFA8AFE1FFA8EFEBEF1020F1FD20D
:100C900065641DE0062D1BDB042819DAA56AD4F86B
:100CA00044B05D4514DBBAF1810F11DA0EEB070A8F
:100CB000AAF1830B9BF802E09BF801B01AF883AC11
:100CC000DE44D6441FFA8EFEBEF1020F38BFA56483
:100CD000A56A823F6D1EB61EA562A9F10209022D0A
:100CE000BFF64CAFD4F83C90B9F1000F1CBF266C96
:100CF000002E34D0676C002F1CBFA76C002F2ED0A5
:100D0000CC46664514DB02EB4C0EBEF9005032F8BF
:100D100016A0A6EB0C0B95FBFBFBAAEB0B0A5544AC
:100D2000AEF802500CF1010C0EF1020E6645ECDA41
:100D30004E4514DB01EB490CBCF900E031F91750CA
:100D4000A7EB090A09F10109A5EB0E0595FBFAF5D8
:100D50007544ACF802500CF1020C4E45ECDA6062BE
:100D60000020C4F830808146A060E060312702F2A4
:100D70006206B6F90050002D01BF36F9025C002D65
:100D800036F9045C002D05D1401C0328A4BFB946E8
:100D90007F1E08DA36F9025C7F1E002D04BF36F98B
:100DA000045C002D07D136F9065C002D03D1401CF0
:100DB0000328A8BFB9467F1E361F002FD9D5C4F817
:100DC0000490DFF8D0636768C6F8C800A7F108058B
:100DD0000095DFF8C05303F5B850D5F8C850DE30A1
:100DE00007EB0508CDF80880AD1E4FF02F0902F281
:100DF0005E0603460195019D122D75D2B6F900C01D
:100E000036F8045CACEB05050FFA85FEBEF1000F69
:100E100048BFCEF1000E0FFA8EF5A561B6F804803A
:100E2000A8EB0C080FFA88F8B8F1000F48BFC8F11A
:100E300000080FFA88F8C4F81C80C4F82CC0062DEE
:100E400017DBB8F1050F14DA029DA9452EDB9C448F
:100E5000ACF1830595F8028095F801E01CF883CC8D
:100E6000C644F4441FFA8CF5022D1FD2C4F80C902E
:100E70001CE0B8F1050F19DB052D17DA4F45A1BFAE
:100E8000009DA945B6F90250022D0FDB9C440CF2DF
:100E9000810E9EF802509EF801E09CF881C07544D6
:100EA0006544ADB2022D38BFC4F80890D4F80CC028
:100EB000BCF1000F1CBFA568002D15D0654513DAE5
:100EC00002EB450EBEF9008032F91CA0ACEB050B1D
:100ED0006D1CAAEB080A9AFBFBFAD044AEF802801C
:100EE0000EF1020EAC45EDDAA9F10109823BB61E06
:100EF000B9F1000F7FF57FAF00239946A360E3604F
:100F0000312701F26206B6F90050812D01BF36F992
:100F1000025C812D36F9045C812D05D15B1C032B0D
:100F2000A4BFB9467F1E08DA36F9025C7F1E812D08
:100F300004BF36F9045C812D07D136F9065C812D9A
:100F400003D15B1C032BA8BFB9467F1E361F002FA1
:100F5000D9D5904EC4F80490C6F8C83066682F23DF
:100F6000A6F1080700978B4F01F25E09D7F8C87009
:100F700006EB070ECDF804E0BF1E122F77D2B9F9A9
:100F800000C039F8045CACEB05050FFA85FEBEF134
:100F9000000F48BFCEF1000E0FFA8EFEC4F818E025
:100FA000B9F80450A5EB0C050FFA85F8B8F1000F5D
:100FB00048BFC8F100080FFA88F5E561C4F82CC0F5
:100FC000BEF1060F16DB052D14DADDF804E07345DB
:100FD0002FDB8444ACF1830595F8028095F801E09D
:100FE0001CF883CCC644F4441FFA8CF5022D20D2A1
:100FF000E3601EE0052D1CDBBEF1050F19DA9E42F1
:10100000A1BFDDF800E07345B9F902E0BEF1020FBF
:101010000FDB84440CF2810E9EF802509EF801E032
:101020009CF881C0AE44F4441FFA8CF5022D38BF01
:10103000A360D4F80CC0BCF1000F1CBFA568002D44
:1010400015D0654513DA01EB450EBEF9008031F984
:101050001CA0ACEB050B6D1CAAEB080A9AFBFBFA73
:10106000D044AEF802800EF1020EAC45EDDA5B1E04
:101070008238A9F10209002B7FF57FAFA362DFF868
:10108000A80302F2620201F262010A2332F9024964
:1010900031F90269344404EBD474641020F8024935
:1010A00032F9024931F90269344404EBD474641012
:1010B00020F8024932F9024931F90269344404EB5B
:1010C000D474641020F8024932F9024931F90269F6
:1010D000344404EBD474641020F8024932F9024914
:1010E00031F90269344404EBD474641020F80249E5
:1010F0005B1ECBD103B0BDE8F08F00000C3BFF1F9F
:10110000F0B5DFF82C03DFF82C43B0F9000008B984
:101110002080F0BD14481A49B0F95000B1F95010C0
:10112000DFF81453081800EBD0704010688068880E
:10113000E988461A2E8036B2304600F00BFAA968CC
:1011400000F022FA0746B5F9040000F003FAE96856
:1011500000F01AFA394600F083FA00F0C3FA208052
:10116000AE80F0BD00000000443AFF1F401A00B2FC
:1011700012FB00F0142290FBF2F0081800B2704746
:10118000EC05FF1F7C07FF1FE020FF1F7407FF1FF8
:10119000C239FF1F6006FF1FC406FF1F2807FF1F7D
:1011A0002DE9F04FA74C85B004F5C0519E48E231BF
:1011B0003222012530F902395D548239521EF9D1AB
:1011C0000A21002000F034FB3021002000F030FB29
:1011D0003021002000F02CFB3021002000F028FB03
:1011E0000D25002606F13001C9B2002000F020FBD9
:1011F000761C0A2EF6DB6D1EF3D10FF26021002063
:1012000000F020FB894E0A25708890FBF5F000F174
:101210003001C9B2002000F00BFB708890FBF5F1A3
:1012200001EB8102A0EB420000F13001C9B20020C5
:1012300000F0FEFA0A21002000F0FAFA7F480026AA
:1012400002907F48009401904FF0640841210020F3
:1012500000F0EEFA96FBF5F404F13001C9B200207B
:1012600000F0E6FA04EB8400A6EB400000F1300148
:10127000C9B2002000F0DCFA009C822714F8010BB0
:1012800000F13001C9B2002000F0D2FA7F1EF5D182
:101290000FF2D011002000F0D5FA0298B0F90070DA
:1012A000002097FBF8F404F13001C9B200F0C0FA55
:1012B00008FB147090FBF5F000F13001C9B200207A
:1012C00000F0B6FA97FBF5F000EB8001A7EB4100C8
:1012D00000F13001C9B2002000F0AAFA0FF27C112F
:1012E000002000F0AFFA0FF28411002000F0AAFAFB
:1012F0000198B0F90090002099FBF8F404F1300156
:10130000C9B200F095FA08FB149090FBF5F000F1DB
:101310003001C9B2002000F08BFA99FBF5F000EB28
:101320008001A9EB410000F13001C9B2002000F0BA
:101330007FFA0FF22811002000F084FA0FF2341126
:10134000002000F07FFA07EB090404EBD4704FEAA9
:10135000600A9AFBF8FB0BF13001C9B2002000F0E3
:1013600067FA08FB1BA090FBF5F000F13001039435
:10137000C9B2002000F05CFA9AFBF5F000EB8001A6
:10138000AAEB410000F13001C9B2002000F050FA90
:101390000FF2C801002000F055FA0FF2E001002022
:1013A00000F050FAA9EB070101EBD170441094FB57
:1013B000F8FA0AF13001C9B2002000F039FA08FB4E
:1013C0001A4090FBF5F000F13001C9B2002000F0A6
:1013D0002FFA01A80268911C016002A90B6894FB16
:1013E000F5F09A1C0A6000EB8001A4EB410000F1CB
:1013F0003001C9B2002000F01BFA0A21002000F0E1
:1014000017FA0098761C00F282000090322EFFF648
:101410001DAF0A21002000F00BFA294605B0BDE8F7
:10142000F04F002000F004BA0A3BFF1F743CFF1F7E
:101430000C3CFF1F9405FF1F1004FF1F443AFF1FC1
:10144000EC05FF1FE020FF1F80B5FFF762F8FFF7F4
:10145000AEF8BDE80140FFF7CAB800002020202008
:10146000000000006C6566743A00000072696768ED
:10147000743A000063656E7465723A006B75616E54
:1014800064753A0070B4284C4FF4807604EB800504
:101490006D69164345F82160D50703D5032A18BFA7
:1014A000132A09D154F820000123426903FA01F1FB
:1014B00022EA010141610EE054F82000012202FA03
:1014C00001F142690A434261012B02680CBF1143DA
:1014D00022EA0101016070BC704778B4124C1B0411
:1014E00004EB800503F470236D6913434FF4807699
:1014F000334345F82130012303FA01F1C5F8C01048
:10150000D30707D5032A18BF132A03D0022A18BF0E
:10151000122A05D154F82020536923EA01015161B0
:1015200072BC573000F0B9B9C804FF1F002200F0A8
:10153000A3BA50F8041B61B150F8042BD30744BF81
:10154000A9F101039A18002342F8043B091FFAD1BC
:10155000EFE77047002840F10980F446404200F070
:1015600005F850F000406047002800BF0AD0B0FAEC
:1015700080F18840D1F19D01C905020672F1004257
:1015800041EB102070470000FF2212EAD05C1DBF23
:1015900012EAD153944593422BE09C44D30780EA4E
:1015A00001021A4043EA002043EA0121A1FB003076
:1015B000410038BF40007CF17F010BDBFE294ADA95
:1015C0005B0842EAC15153EA006373F1004C51EBEE
:1015D00010207047D1F1080CDCF120012FDB5B08F3
:1015E00010FA01F10B4373F1004120FA0CF0504165
:1015F000704794451CBF02EAD153934280EA01022E
:1016000002F000421DD0400019D0490017D05BB94C
:10161000634514D00902B1FA81F39940BCEB030C85
:10162000C00140F00040C1E70002B0FA80FC10FAAF
:101630000CF0B3EB0C0CC90141F00041B6E710000F
:10164000704740000AD0490008D010F1807F94BF55
:1016500011F1807F02E042F0FF407047D0437047B5
:1016600090EA010F44BF81F0004100F01FBA00BFB3
:10167000421A3CBF801A89184FF0004CC0F3C75281
:10168000FF2A24D0C1F3C75313B3D21AD2F11903DE
:1016900027DD4CEA01214CFA03F321EA0303D14090
:1016A000C20D4CEA0020401834BF20EA0C004CEA7E
:1016B0005000D20553EA006373EB0C0C52EB102080
:1016C000420012F1807F38BF7047C00DC0057047DF
:1016D000490212BF9A4200EB5120F8E7D2F11703FA
:1016E000D9D570474100090E7F3915D4D1F11F01BA
:1016F00014D4400007D2C00140F00040C84048BFA9
:101700006FF000407047C00140F00040C8404CBF3F
:101710004FF00040404270470020704700424FF0B9
:10172000004058BFC0437047F0B4052844D8DFE8F4
:1017300000F0030E19242F394E4A4FF44073136002
:1017400053604D4AD36843F48063D36034E04B4A1E
:101750004FF4407313605360474AD36843F4006307
:10176000D36029E0464A4FF4407353601360424A05
:10177000D36843F48053D3601EE0404A4FF4407373
:10178000536393633C4AD36843F40053D36013E03C
:101790003C4A4FF4407353641364374A136843F46C
:1017A000806308E0374A4FF4407353601360324A55
:1017B000136843F400631360334B024653F822402E
:1017C000E57805F0F305E57053F822400025A57093
:1017D00000281ABF01282D482D4800684FF47A745C
:1017E000604353F822500901B0FBF1F42F7826042E
:1017F000360E66F304072F7053F8225040016C70C8
:1018000053F82240B0FBF1F0A17A60F30401A17219
:1018100053F82200C17841F00C01C170F0BC704750
:10182000194951F8202013799B06FCD5D0797047CF
:10183000154A52F8203093F804C05FEA0C6CFAD5D0
:10184000D971704738B504460D4604E015F8011B00
:101850002046FFF7EDFF28780028F7D131BD0A496F
:1018600051F820104000CA782D3042F02002CA7092
:1018700000F013B840A00440288004400CB004409D
:1018800008C0044020D004403C05FF1F703CFF1FEF
:10189000683CFF1F37490860704710B504465C2C50
:1018A000A4BF0FF2E40000F063FB201104EBD06052
:1018B000401103D0022815D00AD310BD0121A4EB9A
:1018C000401001FA00F02C4908602C49086010BD56
:1018D0000121A4EB401001FA00F027494860274994
:1018E000486010BD0121A4EB401001FA00F022492C
:1018F00088602249886010BD10B504465C2CA4BFE6
:101900000FF2BC0000F034FB201104EBD06040115A
:1019100003D0022811D008D310BD0121A4EB401040
:1019200001FA00F01649086010BD0121A4EB401037
:1019300001FA00F01249486010BD0121A4EB4010EB
:1019400001FA00F00E49886010BD38B504460D4616
:101950005C2CA4BF0FF2A40000F00AFB102DA4BF62
:101960000FF2D40000F004FB06492801085531BDF0
:101970000000000008ED00E080E200E000E100E08F
:1019800080E100E000E400E00A4552522120496E67
:1019900076616C6964204952512076616C756520CE
:1019A00070617373656420746F20656E61626C652D
:1019B000206972712066756E6374696F6E210A000A
:1019C0000A4552522120496E76616C696420495261
:1019D000512076616C756520706173736564207445
:1019E0006F2064697361626C65206972712066752D
:1019F0006E6374696F6E210A000000000A4552523E
:101A00002120496E76616C696420495251207661CB
:101A10006C75652070617373656420746F207072DB
:101A2000696F72697479206972712066756E63746A
:101A3000696F6E210A0000000A4552522120496E4A
:101A400076616C6964207072696F7269747920764E
:101A5000616C75652070617373656420746F2070AC
:101A600072696F72697479206972712066756E632C
:101A700074696F6E210A000000B500BF130096461E
:101A80009446103928BFA0E80C50FAD85FEA417C90
:101A900028BF0CC048BF40F8042BC90728BF20F856
:101AA000022B48BF00F8012B00BD0000431A4FF085
:101AB00000423EBF5340C01AC91800BFD3095FEAB5
:101AC000D05C13EB400F34BFB3EB410F40E07CEB35
:101AD000D1530CD342EA012122D8D1EB402009D3C3
:101AE000400A28BF5FEA500140EBCC507047401AD3
:101AF00015D04002B0FA80F2521C9040400A4FEAE2
:101B00003C23B3EB026384BF00EB730007E040F4B7
:101B100000001A16DB07C2F10102D04018437047DB
:101B2000182BFCDC31FA03F202FA03F3591A38BF1E
:101B300042F00102D2EB40203CBF4000ACF1010C6E
:101B40005FEACC5CC20572F100414CEB502070475B
:101B500013EB400F0FD24B0009D0ACEBD153022B4B
:101B600003DB4902172BDDDD70479143401A430028
:101B7000D5D10020704713EB410FD0D36FF0000098
:101B80007047000010B50C461168012902D00229E7
:101B900004D008E0C0B25168884704E0916808703A
:101BA0009068401C90602068401C206010BD30B4DC
:101BB000002400F8014B002A096812D091B191FB72
:101BC000F3F203FB1211002946BFC94301F13105AD
:101BD00001F130051146641C00F8015B0029EED1CB
:101BE00014E019B93021017001240FE0B1FBF3F2C8
:101BF00003FB12110A2934BF01F1300501F1370549
:101C00001146641C00F8015B0029EFD1204630BC6E
:101C100070472DE9F04F80468FB00020924600902B
:101C20000D4604E0424600A9FFF7ACFF6D1C287882
:101C3000010000F0998125280AD00A28F2D14246F5
:101C400000A90D20FFF79EFF424600A90A20EBE7FE
:101C5000002601E046F0100615F8010F20280ED0EE
:101C60002328F7D02B2807D02D2802D0302809D0E0
:101C70000BE046F00106EFE746F00206ECE746F01F
:101C80000406E9E746F00806E6E7691E4FF000099A
:101C900005E009EB890200EB4200A0F1300911F8E0
:101CA000010F0246303A092AF3D92E2804D111F83F
:101CB000010F30380928FAD94D1E15F8010F4C28AC
:101CC00018BF682802D06C2818BF6D1E15F8010FC8
:101CD000582862D0622800F0C080632800F00C8190
:101CE000642818BF692811D06E2800F038816F2849
:101CF00000F0AE80702800F0B580732800F00081FD
:101D0000752800F0B480782847D08BE75AF8040B88
:101D10000A230390012203A905A8FFF748FF044600
:101D200005A8201802900398002848BF2D2706D444
:101D3000B00748BF2B2702D4700702D52027641CA8
:101D400000E00027300711D5384618B1424600A9F7
:101D5000FFF718FF4C4507DA424600A93020FFF78D
:101D600011FF641C4C45F7DB4C46A9E0F0070BD48F
:101D7000A3464C4508DA424600A92020FFF702FF9F
:101D80000BF1010BCB45F6DB3846002800F09880BC
:101D9000424600A9FFF7F6FE92E05AF8040B102322
:101DA0000190002201A905A8FFF701FF044605A83C
:101DB000201802900027300718D5F0060AD54246B1
:101DC00000A93020FFF7DEFE424600A97820FFF789
:101DD000D9FE01274C4507DA424600A93020FFF71B
:101DE000D1FE641C4C45F7DB4C4621E0F0071FD4C4
:101DF00006F010008DF8100000B1A41CA346CB45DE
:101E000008DA424600A92020FFF7BCFE0BF1010BC7
:101E1000CB45F6DB9DF8100050B1424600A93020BA
:101E2000FFF7B0FE424600A97820FFF7ABFE01277E
:101E3000F00645D5002F43D1424600A93020FFF7D8
:101E4000A1FE424600A97820FFF79CFEA41C37E0C3
:101E50005AF8040B082301900DE05AF8040B0223F2
:101E6000019008E05AF8040B1023019003E05AF89F
:101E7000040B0A230190002201A905A8FFF797FE91
:101E8000044605A82018029030070CD54C45BFF633
:101E90006BAF424600A93020FFF774FE641C4C452E
:101EA000F7DB4C460CE0F0070AD427464C4507DA2E
:101EB000424600A92020FFF765FE7F1C4F45F7DB57
:101EC0000298007848B102A8076842467B1E03606A
:101ED00000A93878FFF756FEF2E7F0077FF5A6AEC7
:101EE0004C45BFF6A3AE424600A92020FFF74AFEAC
:101EF000641C4C45F7DB99E65AF8040BC0B291E636
:101F00005AF8047B002F3FF491AE384600F042F8B7
:101F10000446F0070BD4A3464C4508DA424600A914
:101F20002020FFF72FFE0BF1010BCB45F6DB3878B5
:101F300030B1424600A917F8010BFFF723FEF6E780
:101F4000F0077FF573AE4C45BFF670AE424600A970
:101F50002020FFF717FE641C4C45F7DB66E65AF8B5
:101F6000040B0099016061E600980FB0BDE8F08FA6
:101F70000EB400B584B001210091054905AA019174
:101F8000014600A8FFF745FE04B05DF810FB000015
:101F900071410000002138B1027822B110F8012F00
:101FA000491C002AFAD1084670470000F0B5DFF856
:101FB0006464B6F9060008B93081F0BDDFF8580452
:101FC000006800F06FFADFF84444D4E9002300F021
:101FD00091FA0446DFF8440481F00045006800F0FF
:101FE00061FADFF82C74D7E9002300F083FA024687
:101FF0000B462046294600F04FFB00F00DFCDFF8B1
:10200000201400F051FC98BFDFF8180405D9DFF860
:10201000181400F05BFC38BF0846F060FFF762FB65
:10202000308100B2F0BD401A521C50430522DBE063
:1020300002EBD2720B1813EB620130B4B3EB620205
:10204000DFF8E833DFF8E8031C68C1600261152C93
:1020500014DA038844885B1D0380641F1BB244802C
:102060008B42B8BFC36003DB24B2A142B8BFC460D7
:102070009342B8BF03611BDB24B216E015241C6039
:1020800042F229339942A4BF42F22831C16004DAF6
:10209000DFF8A043A142B8BFC4609A42A4BF42F295
:1020A0002831016104DADFF88C43A242B8BF046131
:1020B000C168DFF884230029126804D400240B4689
:1020C0001461936103E04B42136100249461436007
:1020D0000369002B04D400251C461562946203E0BA
:1020E0005C421462002595628460581830BC00EB95
:1020F000D07040107047F0B5DFF84003DFF84013B0
:10210000B0F90030B1F90020DFF8084303FA82F299
:10211000002302EBD272038052100B80E669B4F9FF
:10212000040000B96269DFF81C03A2610068606105
:10213000101A2061FFF70EFA0746DFF80C03394644
:102140000068FFF721FA0546DFF800032562006802
:102150003946FFF719FA074667623046FFF7FAF982
:102160003946FFF77DFAFFF7BDFA42F21071884257
:10217000A8BF084605DADFF8D8128842B8BFDFF8F2
:10218000D402DFF8D462E061DFF8D0023168016088
:10219000E069FFF7DFF92946FFF762FADFF8C022AE
:1021A00030602846114600F07FFB9CBFDFF8B40288
:1021B000206205D9DFF8B01200F088FB38BF216239
:1021C0003846114600F070FB03D8DFF898026062D1
:1021D000F0BDDFF8941200F079FB38BF6162F0BD0A
:1021E000401A521C5043642290FBF2F008187047CA
:1021F000DFF87812DFF878020A68002302800022F4
:102200000A60DFF870120A680B6012B25142DFF800
:102210006832DFF82822198013880088C0181080DF
:10222000DFF81C02028889180180704710B542F25D
:102230001074002100232246084600F059FB0023B9
:1022400022460121184600F053FB002322460221BA
:10225000184600F04DFB2246BDE810400023032144
:10226000184600F045BB80B50D21012000F070FC40
:10227000BDE804400F21012000F06ABC654801213F
:1022800001E0644800214180C18081800180704765
:102290006048B0F90200012800D1704780B55B4A60
:1022A000764BD2E900014FF0FF3200F047FD16D81F
:1022B0000022734B00F05AFD11D2514A6F4BD2E904
:1022C00000014FF0FF3200F039FD08D800226C4BBE
:1022D00000F04CFD3CBFBDE80140FFF7CFBF01BDA2
:1022E0004C48B0F9020000B9704780B5474A654BC9
:1022F000D2E90001002200F021FD05D94FF0FF32A4
:10230000614B00F033FD02D2BDE80140B9E701BDE9
:1023100038B55E4C2078451CEDB2012D20D13B48EC
:102320000025D0E900230020014600F037FD0AD047
:102330003348D0E90023002000F030FD03D0FFF740
:10234000A7FFFFF7CDFF524952480968890544BFEE
:102350000121017002D40078012801D1FFF791FF1B
:10236000257031BD00002DE9F047214E2148316A2A
:102370000068401A00F022FD1F4A204B00F0BAF816
:1023800004461F480D46C0E900451E481E49006826
:102390000968401AFFF7DEF8716AFFF7F5F800F0F8
:1023A00081F806461A480F46C0E90067DFF8E8A042
:1023B0001648DAE90089C0E90089204629464246E4
:1023C0004B4600F069F9354A3B46C2E90001324606
:1023D00000F00AFD0022324B00F07AFD42464B46E7
:1023E00000F002FDCAE90001BDE8F087000000002E
:1023F0005804FF1FBC05FF1F7B14AE47E17AB43FB2
:10240000A805FF1FC005FF1F643CFF1F9805FF1FA5
:10241000A005FF1F0C3CFF1F2C05FF1F3005FF1FF1
:102420000100FA470000FA470000FAC7E405FF1F61
:102430004404FF1FD8DCFFFF2004FF1F803CFF1F68
:102440007E3CFF1F603CFF1F583CFF1F5C3CFF1F92
:10245000F1D8FFFFF0D8FFFFD405FF1FD805FF1FFD
:102460000160EA460060EA460060EAC604800B406C
:102470007C3CFF1F049003407A3CFF1FFF3F70C06D
:102480000040704000408F40FFFF4DC0873CFF1F61
:10249000D0F00F40823CFF1F5006FF1F5806FF1F61
:1024A000000069405FF0FF0C1CEAD05114BF614589
:1024B00006E0C110400721F0E04101F16051704792
:1024C00079B900F0004100020AD0B0FA80FC00FAAD
:1024D0000CF001F16051A1EB0C5101EBD021400552
:1024E000704741020CBF40F4E0016FF00001002092
:1024F00070470000B0B581EA030C0CF0004C40F2CC
:10250000FF7515EA11541DBF15EA1357AC42AF42CF
:1025100039E0E41923EA455343F48013C90241F03A
:10252000004141EA505EC7021100A7FB02020028E9
:102530004FF00000EEFB01204FF00001E3FB07210C
:1025400018BF42F00102401800214941E3FB0E018F
:10255000A4F580640F0302D252004041494154F176
:1025600001046CDD470872F1004250F1000051EBAC
:102570000451A1F580115CBF41EA0C01B0BD4CEAE9
:1025800005510020B0BD05EA1357AC4214BFAF425D
:1025900041E050EA410E1CBF52EA430E02E06146A0
:1025A0000020B0BD24423C441BD15FEA070EF6D0A8
:1025B000090302BF01460020AEF1140EB1FA81F703
:1025C000AEEB070401FA07FE0C37C7F1200100FA51
:1025D00007F7C8404EEA000E23EA455343F4801340
:1025E000A2E733F00043B3FA83F704BFB2FA82FEE6
:1025F00077440B3FE41BB7F1200E2FBF02FA0EF316
:10260000BB40C7F1200E22FA0EFE38BF43EA0E038C
:10261000BA40641C82E750EA410E14BF52EA430EEE
:102620006FF000014FF4001717EB430F8ABF1946F4
:1026300017EB410FB5E74CEA05510020B0BDD4F1CE
:102640000104B4F120070FDAC4F12007520828BFB3
:1026500042F0010210FA07F501FA07F7E1BF2A4339
:10266000E0403843E1400FE0352C98DCC7F120040E
:1026700052EA400220FA07F218BF42F0010231FA92
:1026800007F0A1400A43002172F1004250F100001E
:1026900051EB0C01B0BD000070B44FF0004591EA61
:1026A000030F44BF6B4000F0A9BB00BF841A71EB5D
:1026B000030604D26E40001BB141121973414FF45E
:1026C000001C1CEB410F34BF7CEB430684E00C0D77
:1026D000A4EB1356362E7DDC012E43DC45EAC323E2
:1026E00043EA525312BFD20292025B08240545EA24
:1026F000C12141EA5051D2EBC020994125D407D1E4
:10270000B0FA80F610FA06F164D00020203608E016
:10271000B1FA81F6B140C6F1200220FA02F211436B
:10272000B0404FEAF474B4EB465434F001064FEA7B
:1027300074040AD8D6F50016760D04F00044F04073
:1027400061FA06F25040F1404840C00A40EA415068
:1027500021F0004128BF5FEA500550F1000044EB32
:10276000D12137E045EAC323DB0A45EAC121C90A82
:10277000B6F120050EDD42EA0242120CC5F1200638
:1027800003FA06F6EB4042EA06056D42984161F114
:1027900000010DE062FA06F5F240554063FA06FCCE
:1027A00082EA0C02F3405A406D42904161EB030112
:1027B00011F4801F05D1641E620502D06D004041F6
:1027C000494121F48011430875F1004350F10000A4
:1027D00041EB045170BC70471CEB410F15D223F044
:1027E000004352EA43060BD04FEA4C0CBCEB410FBE
:1027F00004D80C0D661E342EB7DDEBE7801A994124
:1028000050EA410608BF0021E4E708BF1CEB430F74
:1028100028BF6FF00001DDE74FEAF17CBCF1E04C2E
:102820002CBFBCF5001F11E05FEA4C0C34BFBCF1BB
:102830007F5F2EE05FEA9C0C4FEA0C1C4FEA3C0CD9
:10284000C10071F100414CEB50707047C90241EA80
:102850005051C00218BF41F0010141F000414FEA60
:102860006C50C0F10900212810D240EACC7CCCF198
:10287000200C11FA0CF070F10040CCF1200C21FA80
:102880000CF00CF0004C40EB0C0070474FEACC70A1
:102890007047490011F5001F04D84FEACC10FF30F3
:1028A000C0057047C81770474FF0807C1CEB400F85
:1028B00094BF1CEB410F05E040EA010C5FEA4C0CB1
:1028C00001D28142704718BF884270474FF0807C28
:1028D0001CEB400F94BF1CEB410F05E040EA010CDC
:1028E0005FEA4C0C01D28842704718BF81427047A2
:1028F000F0B4DFF8D8414FF47A7524686C4365086A
:102900002C0CB4FBF2F6B6B20024012E04DB641CDE
:1029100046FA04F7012FFADA4FF47A76B24238BF5A
:10292000641CE540B5FBF2F292B2551C6B43642582
:10293000B3FBF5F320B1022800F07F805DD398E06F
:10294000DFF88C510729EE6846F08076EE6000F2E1
:10295000A780DFE801F0040E18222B353F49AE684E
:1029600046F40066AE60DFF86C514FF480662E606E
:102970007FE0AE6846F40066AE60DFF858514FF471
:1029800080666E6075E0AE6846F40066AE60DFF8A3
:1029900044514FF48066AE606BE0AE6846F400666A
:1029A000AE60DFF830514FF4806661E0AE6846F407
:1029B0008056AE60DFF820514FF480662E6058E0FC
:1029C000AE6846F48056AE60DFF80C514FF4806676
:1029D0006E604EE0AE6846F48056AE60DFF8F850A8
:1029E0004FF48066AE6044E0AE6846F48056AE6058
:1029F000DFF8E4504FF480663AE0DFF8D450EE6838
:102A000046F00076EE6011B101290BD048E0AE68C7
:102A10004FF400773E43AE60DFF8C0504FF440768D
:102A20002E6026E0AE684FF400773E43AE60DFF8DC
:102A3000AC504FF440766E601BE0254D2E6846F09A
:102A400080762E6011B101290AD029E0AE684FF4DA
:102A500000773E43AE60214D4FF44076AE6008E013
:102A6000AE684FF400773E43AE601C4D4FF44076A5
:102A7000EE601B4D04F0070455F8200044F02804D4
:102A800000EBC101CD689BB225F00405CD6028257F
:102A9000CD6004600024C4648260C4640B6144603F
:102AA000F0BC70470D484FF4C0610160416001689F
:102AB00041F003010160416841F0030141600948B0
:102AC000016841F000710160074829E0703CFF1F78
:102AD0003080044004B0044010C004402090044002
:102AE0002004FF1F3C8004400490034009484FF439
:102AF000C06101604160016841F00301016041680B
:102B000041F0030141600448016841F080710160B7
:102B1000024805E0289004403080044004800B40C7
:102B2000016D41F004010165C16F41F00801C16709
:102B3000002181644FF6FF714160C16F41F00101D6
:102B4000C167016D41F0010101650021016070471D
:102B500010B101284CD070477548426A42F00062BB
:102B60004262026822F090020260002202600A467D
:102B7000083A0A2A00F28280DFE802F05E5E06066A
:102B800014142121802E2E00026A4FF400731A4380
:102B90000262880000F1804000F59220002140F898
:102BA0000C1C7047026A42F480620262880000F1E5
:102BB000804000F59420002140F8281C7047026AEC
:102BC00042F400620262880000F1804000F5962025
:102BD000002140F8381C7047026A42F40052026239
:102BE000880000F1804000F59A200021C161704703
:102BF0004F48826942F000628261026822F410420A
:102C00000260002202600A1F0D2A37D8DFE802F0B6
:102C1000070707071414212121212121362E026ADA
:102C200042F400520262880000F1804000F59A20D0
:102C3000002140F8101C7047026A42F48062026270
:102C4000880000F1804000F5942028380021816040
:102C50007047026A42F480620262880000F180409C
:102C600000F594202838002101617047016A4FF473
:102C70000072114301622F4800210160704710B5B6
:102C8000044600F029F82C4800F1100151F82410F6
:102C900009680906F8D500EB8400016908690A682B
:102CA00080B222F080020A6010BD2DE9F84304468C
:102CB0000D469146002798464BB146464A4629465E
:102CC0002046FFF7DCFF17FA80F7761EF6D1B7FB38
:102CD000F8F080B2BDE8F283174B01F01F0141F01C
:102CE00040011972910001F00C0141F0500119707E
:102CF0000421597041F2342145F2786259809A805A
:102D000003EB800093F800C00069C0F808C04FF0E2
:102D1000040CC0F80CC08161C26199790162D97953
:102D20004162D9680165197A0160597A416070473A
:102D300018800440449004402C04FF1F4FF4001CF2
:102D40001CEB410F94BF1CEB430F09E041EA030C5D
:102D500050EA4C0C52EA0C0C03D28B4208BF824260
:102D6000704714BF99429042704700004FF4001C16
:102D70001CEB410F94BF1CEB430F09E041EA030C2D
:102D800050EA4C0C52EA0C0C03D2994208BF904214
:102D9000704714BF8B4282427047000090420CD1B2
:102DA00041EA030C50EA4C0C07D0994205D14FF48C
:102DB000001C1CEB410F38BF89427047010040F1F5
:102DC0000780F446404200F003F851F000416047AC
:102DD00009D0B0FA80F18840C91CC1F584610905A9
:102DE00001EBD0214005704770B44FF0004591EAE7
:102DF000030C44BF6B40FFF759BC00BF841A71EB52
:102E0000030603D2001BB141121973414FF4001C99
:102E10001CEB410F34BF7CEB430443E00C0DA4EBEF
:102E20001356352E50DC45EAC323DB0A45EAC1219F
:102E3000C912B6F120050DDD63FA05F6EB4086EA0E
:102E40000305124218BF45F00105C01851F10001F9
:102E50000CD213E062FA06F5F2405540F3415A40B5
:102E6000B340F3405A408018594107D349085FEAFC
:102E700030005FEA350528BF45F0010501F58011F6
:102E8000420875F1004250F1000041EB045170BC62
:102E90004FF4001C1CEB410F38BF70470020090D98
:102EA000090570471CEB410F10D252EA43060BD0C4
:102EB000BCEB410F05D80C0DAB43661E342EB5DDBF
:102EC00002E0AB438018594170BC704770BC70473A
:102ED000F0B540F2FF7581EA030C0CF0004C15EAE6
:102EE00011541DBF15EA1357AC42AF42E5E0BC4197
:102EF000C1F31301C3F31303801A994143F4801300
:102F000004D2641E4000494180185941C90241EA77
:102F10005051B1FBF3F603FB1611A2FB0675D7EB7C
:102F2000C020A94102D2761E80185941C90241EA47
:102F30005051B1FBF3FE03FB1E11A2FB0E75D7EB44
:102F4000C020A94103D2AEF1010E80185941890277
:102F500041EA9051760546EA8E2EB1FBF3F603FB6B
:102F60001611A2FB0675D7EB8020A94102D2761E6E
:102F700080185941C90241EA50514EEA060EB1FB90
:102F8000F3F603FB1611A2FB0675D7EBC020A9418F
:102F900002D2761E80185941C90241EA5051B1FB54
:102FA000F3F703FB1711A2FB0735D3EBC020A941B0
:102FB00067F100070CBF004247F0010766F3D52711
:102FC0004FEA1E31B80814F5806412DDBD0775F1B3
:102FD000004250EB0E5051EB045111F5801F5CBFC5
:102FE00041EA0C01F0BD4CF07F6141F0E04100206E
:102FF000F0BDBD076D0840EA0E5041F48011D4F1D8
:103000000104B4F120060ADAC4F120060200E0400F
:1030100001FA06F3E1401843B24015430EE0342CA8
:1030200013DCC6F1200445EA40056D0820FA06F2DB
:10303000154321FA06F0A1400D43002175F100422D
:1030400050F1000051EB0C01F0BD00205FEA0C01D3
:10305000F0BDCFB992185B41B3FA83F704BFB2FA5F
:1030600082F6BF190B3FB7F120062FBF02FA06F315
:10307000BB40C7F1200622FA06F638BF3343BA40F8
:103080001CB1E419641E33E77F4231F00041B1FA0C
:1030900081F404BFB0FA80F6A4190B3CB4F1200609
:1030A0002FBF00FA06F1A140C4F1200620FA06F66F
:1030B00038BF3143A0403C1B1AE7AC421ABF05EAB7
:1030C0001357AF4212E050EA41061CBF52EA4306D2
:1030D000BFE750EA4107304661461CBF41EA05514F
:1030E000F0BD52EA430C08BFC143F0BD00204FF4CD
:1030F000001616EB410F98BF16EB430F08BF16EBF7
:10310000410F24BFC14305E016EB430F0CBF6146DE
:103110004CEA0551F0BD000096480168890400D4CE
:10312000704730B50168944C41F40051016083B0A0
:10313000607870B3A078401CA070218FC0B20919CC
:103140000979884225D101200290C82001900020F1
:103150000090208F6C2300EB8011884800EB410227
:103160008749042000F040F9864DA86940F010001E
:10317000A8610420FEF791FB286840F01000286049
:10318000208F401C2087208F322802D300202087E8
:10319000207003B030BD7C480168C90500D4704779
:1031A00080B501684FF48072114301607248C178A4
:1031B000491CC170C9B2012909D100218170018760
:1031C00001214170BDE802405A20FEF766BB02298A
:1031D0000AD30021C1705A20FEF78EFBFEF734F9A6
:1031E000BDE80140FDF7DCBF01BD10B5654CA0692D
:1031F00040F01000A0610420FEF77EFB206820F064
:103200001000206010BD6148016841F001010160BB
:103210005F480121017070475E48016841F001017B
:1032200001605D48012141708178491CC9B20A29B9
:1032300002D101210170002181707047704710B5E3
:103240000FF284142046FEF793FEFBE770477047A9
:103250004C48816941F001018161016841F001013F
:10326000016070474D48016841F0800101604C48A1
:103270000168491C0160704710B50020FEF7D0FAC4
:10328000484CE1690855481C6179E061732912D105
:1032900006281AD10020E06143480021016043481C
:1032A00001604348016043480160434801602BA12D
:1032B0000020FEF7C7FA6079722804BFE06906288B
:1032C00003D127A10020FEF7BDFAE069112843D100
:1032D000207C75280CD10020E06122A1FEF7B2FA13
:1032E00000F064F9606935490860A06934492FE04D
:1032F00076280CD10020E0611BA1FEF7A3FA00F0B4
:1033000055F9606928490860A069284920E07728B4
:103310000CD10020E06115A1FEF794FA00F046F907
:10332000606923490860A069224911E0742813D11B
:103330000020E0610EA1FEF785FA00F037F9606920
:10334000FEF7D0F91F490860A069FEF7CBF91A49CA
:10335000086000206061A06110BD00003500000021
:103360003600000031000000320000003300000091
:1033700034000000A0C00440F004FF1F7C07FF1FC2
:10338000D0F00F400C800040A0B004400C7103400E
:10339000863CFF1F1C710340833CFF1F000004405C
:1033A000543CFF1F343CFF1F583CFF1F5C3CFF1F79
:1033B0001804FF1F1C04FF1F603CFF1F2C05FF1F8C
:1033C0003005FF1F7804FF1F0A2A2A2A2AD3B2BC1D
:1033D000FEC9CFB7C3B4EDCEF32121212A2A2A2A70
:1033E0002A0D0A0A000000002DE9F84F83460C461A
:1033F00016460A98DDF82CE00C9908B9012507E07B
:10340000012808BF022503D002280CBF042510257F
:10341000534A4FEA4B18976800F0070947F0020734
:103420009760576847F0020757604E4F48F80740CB
:1034300047443E610026BE80060206F4E066BD8277
:1034400049EA0606FE804FEA4E46760CFE824FEAB7
:10345000CE56F60DFE83444ED6F8009029F0800932
:10346000C6F80090BD600026FE608E0654BFCEF107
:10347000000C4FF0000CC7F818C00A26BE835F0985
:1034800007F13106DFF8E48046F080060BF80860AB
:103490004FF4007C16680CFA07F737431760344F77
:1034A0004FEA631E57F82E704FF001097E6903F052
:1034B0001F0A09FA0AFA26EA0A06DFF8B8A07E61AE
:1034C00003F01F065AF82EE0009601F00306890962
:1034D00041EA06464FF480713143009E4EF82610B3
:1034E000591E8941C943C90F7B6909FA01F123EAD1
:1034F00001017961A709116807F007030CFA03F3CA
:103500001943116018B1022806D002D307E02071D8
:103510000AE00020A08007E00020606004E076213F
:103520000FF2540000F01AF9A4F1100000F03F006F
:1035300000EBC501C9B2024688420CDA800007F0F0
:1035400007034FF481745AF82350521C4451001D54
:10355000D2B28A42F7DB5846BDE8F24FFEF79DB97A
:10356000388004400090004000800040001002407D
:10357000C804FF1FDC04FF1F433A5C557365727378
:103580005C6D6169646F755C4465736B746F705CCE
:10359000342E33305C7372635C6472697665727367
:1035A0005C646D615C646D612E63000070B5644C99
:1035B000644D20782E68682817D061281ED06228B4
:1035C00025D063282ED0642837D065283FD06628C0
:1035D00047D0672808BF00204CD05B494843FDF71F
:1035E000B9FF3146FEF73CF8064660785749484334
:1035F000FDF7B0FF3146FEF733F80646A078544990
:103600004843FDF7A7FF3146FEF72AF80646E07863
:1036100042F2107111FB00F0FDF79CFF3146FEF7FE
:103620001FF8064620794FF47A7111FB00F0FDF780
:1036300091FF3146FEF714F806466079642111FBCC
:1036400000F0FDF787FF3146FEF70AF80646A0793D
:1036500000EB80014800FDF77DFF3146FEF700F8E2
:103660000646E079FDF780FF3146FDF7F9FF39495D
:1036700000F0AAF82860207A374D2E68682817D005
:1036800061281ED0622825D063282ED0642837D028
:1036900065283FD0662847D0672808BF00204CD057
:1036A00029494843FDF756FF3146FDF7D9FF064645
:1036B000607A26494843FDF74DFF3146FDF7D0FFBC
:1036C0000646A07A22494843FDF744FF3146FDF7FC
:1036D000C7FF0646E07A42F2107111FB00F0FDF7D9
:1036E00039FF3146FDF7BCFF0646207B4FF47A7167
:1036F00011FB00F0FDF72EFF3146FDF7B1FF064646
:10370000607B642111FB00F0FDF724FF3146FDF7DB
:10371000A7FF0646A07B00EB80014800FDF71AFFDB
:103720003146FDF79DFF0646E07BFDF71DFF314664
:10373000FDF796FF074900F047F8286070BD0000CC
:10374000343CFF1F483CFF1F8096980040420F000A
:10375000A086010000401C464C3CFF1F70B504468B
:103760000D4600F0AFF80FF214062A462146304607
:10377000FEF7FEFB00F0D1F8F7E70000B6CFD1D49A
:10378000B7A2C9FAD4DA2573CEC4BCFEB5C4B5DA83
:103790002564D0D0A3A10AB6CFD1D4CCF5BCFEB25B
:1037A000BBB3C9C1A2A3ACC7EBBCECB2E2B4EDCED3
:1037B000F3D4ADD2F2A1A309A1AAA1AA20627920D3
:1037C000D2B0BBF00A0A000010B5FF2313EAD054B0
:1037D0001DBF13EAD1529C429A4239E0A41ADA077B
:1037E00080EA0103134042EA012142EA0020421A22
:1037F0003CBF641E01EB4202090AB2FBF1FE01FB71
:103800001E221202B2FBF1F001FB10226EF30F2018
:103810001202B2FBF1FE4EEA00207F3406DDFE2CE0
:1038200024DA53EA500050EBC45010BDD4F1020426
:1038300001FB1E2240F08071192C1DDC21FA04F0DE
:10384000C4F12004A140114371F10042584110BD60
:103850009C421ABF03EAD1529A420FE080EA010E5D
:103860000EF00043400004D0490016D143F0FF4061
:1038700010BD490008BFD343180010BD9C4205D1BC
:10388000D21AF7D001F00041484010BD4A0212BFE1
:103890000846484000F0004010BD4AB90902B1FA9C
:1038A00081F2914044B1A418C00140F000409EE76D
:1038B000C90141F0004152420002B0FA80F4A04038
:1038C000141B94E780B5012301220C210320FDF78E
:1038D000D9FD01231A460D210320FDF7D3FD012355
:1038E0001A460E210320FDF7CDFDBDE8005001234F
:1038F0001A460F210320FDF7C5BD2B4A4FF0010CDE
:10390000D2680CFA00FC136801F0010123EA0C03F1
:1039100001FA00F018431060704780B501230122BE
:103920000C210320FDF7AEFD01231A460D210320D3
:10393000FDF7A8FD01231A460E210320FDF7A2FD85
:1039400001231A460F210320FDF79CFD00210C20C6
:10395000FFF7D3FF642000F029F801210C20FFF7C6
:10396000CCFF00210D20FFF7C8FF642000F01EF8F7
:1039700001210D20FFF7C1FF00210E20FFF7BDFF41
:10398000642000F013F801210E20FFF7B6FF00219C
:103990000F20FFF7B2FF642000F008F8BDE80440F4
:1039A00001210F20A9E70000C804FF1F40B105490D
:1039B00009680A0002D000BF521EFCD1401EF8D197
:1039C00070470000703CFF1F10B572B600F0D1F8D0
:1039D0004FF416510020FDF7A7FEFEF744FCFFF759
:1039E00061F8FFF783F86420FFF7E0FFC8230122A6
:1039F0000F210120FFF759F9694908604FF47A70E7
:103A0000FFF7D4FFFCF722FD01231A461121002005
:103A1000FDF738FD00231A4609210320FDF732FD8A
:103A200000231A4605210220FDF72CFD5D4C0020E5
:103A3000216800F0C3F8206864214143012000F0B0
:103A4000BDF803215A20FDF780FF02215920FDF720
:103A50007CFF01215420FDF778FFFEF7E7FB62B6FB
:103A60000020FDF7FCFE504C20780128FCD10020FE
:103A7000207000F001F8F7E770B54C4CA06AB4F97B
:103A80000610401CA0622088401C20806088421CD8
:103A9000E06B6280401CE06312B2B4F90400FDF7F1
:103AA00065FBA065B4F90060A06CFDF71BFE054640
:103AB000606CFDF717FE32462946FEF791FBE06485
:103AC000E26BA16B606BFEF7AEFA2064FEF720FCA0
:103AD000A06A052804DB0020A062FEF789FB39E01C
:103AE00001280DD10F2301220D21FFF7DEF8E0623E
:103AF0000A2301220F210120FFF7D7F8206329E0D4
:103B000002280ED10020E063FEF72DFC606BA0635D
:103B1000FEF74CFA6063A26DE16CFEF789FA20654E
:103B200018E003280ED1606A401C6062142811DB83
:103B300000206062FEF7DFFA00202080606D401CEC
:103B4000606507E0042805D1A088E080FDF7D8FA79
:103B50000020608016480178012909D115490A68BA
:103B60000B68D243520C62F351430B600021017089
:103B700070BD0E4800218163C18081804162016275
:103B8000C0E90211C0E90411C0E9061101804180B9
:103B9000C16381650848016821F4007101607047C4
:103BA000643CFF1F703CFF1F863CFF1F9005FF1FFA
:103BB000833CFF1F00F00F40D0F00F400D4A136808
:103BC00043F4000313600C4A13689B089B00FFE753
:103BD00013600A4B0201D150D118CA68443042F038
:103BE0000102CA608A6842F003028A60FDF755BE8E
:103BF000000000003C80044000700340007103405E
:103C0000DFF800F05505FF1F70B5002800F0868032
:103C100030281ED032282ED060282FD0642855D0CE
:103C20006E282ED078282FD07D2830D0822831D011
:103C30008C2832D0962833D0A02834D0AA2835D06A
:103C4000B42836D0C82837D0E12838D0FA2839D05F
:103C50003BE018210022544C21700021A1709728CC
:103C60008941C943C90FE170E17862701A28217156
:103C70002FD2002051E018210122ECE71821182250
:103C8000E9E718211F22E6E713211822E3E71321B1
:103C90001A22E0E713211C22DDE70E211222DAE7C7
:103CA0000E211522D7E70E211822D4E70E211B2260
:103CB000D1E70E211E22CEE70C211C22CBE70B21DF
:103CC0001E22C8E70A211F22C5E7642018211A22F4
:103CD000C1E7332838BF01201FD34C2838BF02204A
:103CE0001BD3652838BF032017D37E2838BF042094
:103CF00013D3972838BF05200FD3B02838BF06202C
:103D00000BD3C92838BF072007D3E22838BF0820C3
:103D100003D3FB2834BF09200F206071224C3221CD
:103D20006078224E183080B248432178491C89B20D
:103D300090FBF1F5002070701D48016841F0805142
:103D400001601C48017841F08001017098203070BA
:103D5000B079C006FCD4B079C0F381000228FAD152
:103D6000207800F01F003071002070716379227993
:103D7000E178A078FFF744FF607800F01F0040F082
:103D800040007071B0798006FCD5B0794006FCD552
:103D9000307800F03F003070B079C0F38100032824
:103DA000FAD1E8B270BD00BF3405FF1F00400640E5
:103DB0003480044008C007400000000000004100BB
:103DC000000000000000000000800340009003405D
:103DD00000800B4000000000000000000000000018
:103DE0000000000000B0034000B00B40C80038FFE6
:103DF00000000000000000000000000000000000C3
:103E00000000803F00000000000000000000803F34
:103E100000000000000000000000000000000000A2
:103E2000D2090000A69B443E3BDF4F3E000000004D
:103E30006F12833AA69B443B0000003F0AD7A33B86
:103E40000000803F000000000000000000000000B3
:103E50000000000000000000000000000000000062
:103E60000000000000000000000000000000000052
:103E700000F00F4040F00F4080F00F40C0F00F40C6
:103E800000F10F400090044000A0044000B0044046
:103E900000C0044000D00440000000000305080AF0
:103EA0000E12161A1E22262A2E32363A3E42464A52
:103EB0004C54585E626466686C7072747A80868C4A
:103EC00092989EA8B4B8BEC4CDDAE0E6ECF000004B
:103ED0000000000000C0FC4400002C420B1F00004A
:103EE0000009000000A0064000B0064000C00640E7
:103EF00000D0064000A00E4000B00E4010B516499C
:103F0000164C8C4204D04FF48252204600F038F810
:103F10002046FDF7BFFC1249124A1348521A05D039
:103F200011F8013B521E00F8013BF9D10F4810492E
:103F3000091A05D0491E002200F8012B0029F9D1E9
:103F40000C490D4A0D48521A05D011F8013B521E7A
:103F500000F8013BF9D110BD000000000000FF1F78
:103F6000B83D0000FC3E00001004FF1F9005FF1F3D
:103F7000883CFF1F6C400000A84000005405FF1F54
:103F8000103A07D330B4B1E83810103AA0E838102E
:103F9000F9D230BC530724BFB1E80810A0E80810DC
:103FA00044BF51F8043B40F8043BD20724BF31F82A
:103FB000022B20F8022B44BF0B7803707047083A9D
:103FC00007D3B1E80810083A40F8043B40F804CBA6
:103FD000F7D25307E4E7000080B5FFF773FCFFF763
:103FE0009CFC04480178BDE804400FF20C00FDF78A
:103FF000BFBF000004ED00E00A2A2A2A2A64656691
:1040000061756C745F69737220656E746572656446
:10401000206F6E20766563746F722025642A2A2AC9
:104020002A2A0D0A0A00000038B50E4D0E4C2868E9
:1040300040F478502860C820FFF7E6FD60604FF438
:104040007A7111FB00F02060E968C1F30361491C3B
:10405000B0FBF1F0A060BDE834404FF416510220EF
:10406000FDF762BB38800440683CFF1F70B409064E
:1040700001F0706141EA00701105094C01F4700112
:10408000084325681904266801F47021084346F4A2
:104090007F06044926600860256070BC704700BF39
:1040A00000F001404480044080B500F007F8084863
:1040B0004FF6FE7201881140018001BD72B60548BD
:1040C0004CF2205101804DF62811018062B67047F4
:1040D000002005400E20054010B5084979441C31E8
:1040E000074C7C441A34A14206D0081D0A685118B6
:1040F00088470146A142F8D110BD00BF080000006A
:10410000140000002FD4FFFFF83600009005FF1FB9
:10411000000000000120C046002801D0FFF7DCFFAE
:104120000020FFF751FC00F000F800F001B800009B
:104130000746384600F002F8FBE7000080B5C046AD
:10414000C046024A11001820ABBEFBE72600020061
:1041500080B5FFF7A9FFFFF7D1FEFFF765FFFFF777
:1041600033FCFEE7C046C046C046C046FFF7D2FF5C
:0841700001460220FDF75CBBD3
:040000050000416551
:00000001FF
